:10000000F0FE022021040000BB060000BB06000039
:10001000BB060000BB060000BB060000000000009D
:100020000000000000000000000000007F6C0200E3
:10003000BB060000000000000B6D0200BB060000C4
:10004000BB060000BB060000BB060000BB060000AC
:10005000BB060000BB060000BB060000BB0600009C
:10006000BB060000BB060000BB060000BB0600008C
:10007000BB060000BB060000BB060000BB0600007C
:10040000FFFFFFFFFFFFFFFFFFFFFFFFFEFFFFFFFD
:0404100000000000E8
:1004200013481449144A4FF0080333B140F8042B21
:1004300041F8042BA3F10103F7E7EFF3088080F301
:100440000988EFF3148040F0020080F31488BFF3B2
:100450006F8FDFF82800016841F4700101600848DF
:100460004FF00001016000F013B800000000000030
:1004700080E100E080E200E0FFFFFFFF88ED00E0A8
:1004800034EF00E080B500F007F8012002BDFEE780
:1004900080B500F005F801BD80B500F007F801BD9A
:1004A000AFF3008000F0F8F800F008F980B5674875
:1004B0004CF22051C1814DF62811C1814FF4E971F0
:1004C000018000F009F900F004F800F025F901209E
:1004D00002BDF0B45FF0E0205D485E485E495F4ACF
:1004E0005F4B604C604D614D614E0027DFF884C169
:1004F000CCF8007041F23C07C75957F0005741F261
:100500003C0C40F80C700F69FF0502D44FF4807763
:100510000F6140F2FF310978C9B2FF290ED040F2D5
:10052000FF31097891705449097811F0E00140F2E7
:10053000FE373F7817F01F073943D1704F4941F21A
:100540004407C151022141F26807C1514C4941F2AF
:100550000407C1514B4901600021117325215170DD
:100560008121494F39709A2111700021D1700021E9
:1005700011710E2151710021117491798907FCD5F7
:100580009179C906FCD4917911F00C010829FAD1AE
:100590004E215171917911F00C010829FAD191790C
:1005A0004906FCD51A211170917911F00C010C2922
:1005B000FAD1517951F0200151711F216971012146
:1005C0002971B178090703D5B17851F00801B170EC
:1005D0000021B170502131704021717041F23C0115
:1005E000415851F4000141F23C028150012119604F
:1005F0002649216041F23C01415851F4802141F2E9
:100600003C02815041F23401415851F4002141F241
:10061000340281505FF088501D49086001201D4957
:100620000870F0BC70470B4941F254028A580260CE
:1006300041F258028A58426041F25C028A58826054
:100640004FF483528958C160704700000020054074
:1006500000E100E00070044000D00340004006408C
:100660000070034000F001400020034000F007400C
:1006700000D0074000D00040034006400000660262
:10068000401305050000088000500640FF335F005E
:100690000C0008E002D007404EF68851CEF200016F
:1006A000086840F470000860BFF34F8FBFF36F8F8E
:1006B0004FF00070E1EE100A7047FEE7FFF7E2FE30
:1006C000002801D000F076FA0020AFF3008000F09F
:1006D00085FAFFF7DCFE000010B582B00C48006818
:1006E00050F478500A49086000240DE009481421AC
:1006F00001FB04F1014484B06846142200F086FA3C
:100700000FBC00F0AFFA641C642CEFD3002016BDC0
:100710003880044064DB020010B4DFF87004DFF8B6
:10072000701441F23C028A5852F0020241F23C033A
:10073000CA504FF482528A5852F002024FF4825348
:10074000CA50DFF85014016001688903FCD4DFF857
:100750004414016001688903FCD4002141614021F7
:10076000C1774021817740218176062180F80311ED
:10077000072180F80211022180F80111032180F87D
:100780000011042180F80711052180F80611C0210D
:1007900080F80511C12180F80411082180F80B119F
:1007A000092180F80A110A2180F809110B2180F82B
:1007B00008110C2180F80F110D2180F80E110E2167
:1007C00080F80D110F2180F80C11102180F8131101
:1007D000112180F81211122180F81111132180F8D3
:1007E0001011142180F81711152180F81611162107
:1007F00080F81511172180F81411182180F81B11A9
:10080000192180F81A111A2180F819111B2180F87A
:1008100018111C2180F81F111D2180F81E111E21A6
:1008200080F81D111F2180F81C114FF480610160B8
:10083000002142E000224B0103444FF480541A513E
:1008400000224B01034441F204041A5300224B01DD
:10085000034441F206041A5300224B01034441F2BF
:1008600008041A5100224B01034441F20C041A51AE
:1008700000224B01034441F210041A5100224B01A3
:10088000034441F214041A5300224B01034441F281
:1008900016041A5300224B01034441F218041A5162
:1008A00000224B01034441F21C041A5300224B0165
:1008B000034441F21E041A53491C2029BAD310BC28
:1008C0007047C0B2012804D0022804D0042804D004
:1008D00005E0002004E0012002E0022000E000200A
:1008E0007047F8B504000D00A84E607EA87020780F
:1008F000400130444FF480510022425020784001A2
:10090000304441F20401627E42522078400130447A
:1009100041F20C010022425020784001304441F263
:100920001001E268425020784001304441F2140145
:100930000022425220784001304441F21801002246
:10094000425020784001304441F20801627E42501A
:1009500020784001304441F21E01002242522078AA
:100960004001304441F2160100224252207EFFF73E
:10097000A8FF0700207EFFF7A4FF2178490131443A
:1009800041F20602FFB23B0253FA80F0885220780F
:100990004001304441F21C01082242522078287064
:1009A0002078616980392269C0B21154F1BDF8B56F
:1009B00004000D00754E607EA87020784001304420
:1009C0004FF48051E268425020784001304441F2B7
:1009D00004010022425220784001304441F20C01CF
:1009E0000022425020784001304441F210010022A0
:1009F000425020784001304441F21401627E42525C
:100A000020784001304441F2180100224250207801
:100A10004001304441F20801627E4250207840019A
:100A2000304441F21E0100224252207840013044FD
:100A300041F2160100224252207EFFF742FF0700DA
:100A4000207EFFF73EFF21784901314441F2060242
:100A5000FFB23B0253FA80F08852207840013044C4
:100A600041F21C010A2242522078687020786169A4
:100A700080392269C0B21154F1BDF8B504001D00DF
:100A8000424E607830776078400130444FF48053B4
:100A90001844414B036100238382C38B6FF30A0325
:100AA0001343C383C38BC3822078307720784001FF
:100AB00030444FF4805300EB030739600120B880C5
:100AC000F88B6FF30A001043F883F88BF88201204B
:100AD000FFF7F7FEEDB2C0B2000210EBC525012012
:100AE000FFF7EFFE55FA80F0F8806078F076207816
:100AF000F076F1BD80B506202849087028480068C6
:100B0000006850F44060264909680860244800687D
:100B1000C06A23490968C8620221224800F0C1FA6C
:100B200001BD00B58FB007208DF800001C4800689B
:100B3000343003901C4804900F20059001208DF85C
:100B4000180001208DF8190018496846FFF7C9FE02
:100B500006208DF81C001248006838300A901248B0
:100B60000B900E200C9001208DF8340001208DF8A0
:100B700035000E4907A8FFF71AFF0D4A084881689B
:100B8000162000F008FD0FB000BD000000800040FE
:100B90000070044020040200D95800201F8000404B
:100BA00060C202003C480020001002401C480020A7
:100BB000F50A000010B5074979441831064C7C4409
:100BC000163404E00A68081D114488470146A14212
:100BD000F8D110BD28E0020064E0020080B50248B0
:100BE00000F024FD002002BD60D2020062B38B073A
:100BF00008D0521E11F8013B00F8013B00F02480A0
:100C00008B07F6D1830740F0208000BF103A07D34E
:100C100030B4B1E83810103AA0E83810F9D230BC3E
:100C2000530724BFB1E80810A0E8081044BF51F8EA
:100C3000043B40F8043BD20724BF31F8022B20F8D4
:100C4000022B44BF0B7803707047083A07D3B1E812
:100C50000810083A40F8043B40F804CBF7D2530799
:100C6000E4E700000FB401989DF808109DF80920F2
:100C70009DF80A30DB0353EA02429DF80B3052EA3A
:100C800003229DF80C3052EA83129DF80E3052EA8E
:100C900043129DF80F3052EA03129DF80D3052EACC
:100CA00083029DF810301A4340F821209DF812006D
:100CB000002806D101209DF808108840009988601E
:100CC00005E001209DF808108840009948600098D0
:100CD000406901219DF80820914088439DF811103A
:100CE0009DF80820914008430099486104B070477E
:100CF0007CB504000E00DFF89407056895F8400005
:100D0000C0070AD500200190002000900023220097
:100D100044F21501012000F0FBFE14F10800A06070
:100D200014F10800E0600020208200206082002092
:100D3000A061E661F00703D55FF0FF30206201E0BB
:100D40000020206201F035F8D5F89C0300280FD16F
:100D50004FF467702844C5F89C034FF4677028442B
:100D6000C5F8A0030020A5F8A4030020A5F8A60359
:100D7000DFF81C076061D5F89C0300E000684FF4C1
:100D800067712944884216D0A042F7D101F021F8BA
:100D900095F84000C0070BD500200190002000907E
:100DA00000234FF4826244F21501022000F0B0FEED
:100DB0004FF4826021E0D5F8A00300682060D5F8E8
:100DC000A0130C60D5F8A01361604460B5F8A403CB
:100DD000401CA5F8A40300F0FCFF95F84000C007F4
:100DE0000AD500200190002000900023002244F248
:100DF0001501022000F08CFE002076BD80B5002297
:100E0000FFF776FF02BD7CB50500DFF880060468B9
:100E100094F84000C0070AD50020019000200090FF
:100E200000232A0044F21601012000F071FE208BFD
:100E3000002810D094F84000C0070AD50020019087
:100E40000020009000230D2244F21601022000F041
:100E50005FFE0D2092E000F0ACFF6869DFF830160D
:100E6000884212D000F0B5FF94F84000C0070AD5C0
:100E700000200190002000900023392244F2160146
:100E8000022000F045FE392078E00020686155E03E
:100E9000AE687068316801604860288A401E288208
:100EA0003C3EB068C00510D570683168016048608C
:100EB000B4F8D801401EA4F8D801B06830F48070AE
:100EC000B060B06850F00300B06094F84000C00714
:100ED0000AD500200190002000900023320040F24B
:100EE0000111012000F014FE606AF169884201D20C
:100EF000F06960620220B060F069406870607068FC
:100F00000068306070680660F06946600020C6F8CE
:100F1000B0000020C6F8B4000020C6F8B80094F86D
:100F20004000C0070AD50020019000200090002357
:100F3000002240F20111022000F0EAFD288A002878
:100F4000A6D16868296801604860B4F8A403401E0F
:100F5000A4F8A40300F03DFF25F07EFE94F84000C5
:100F6000C0070AD500200190002000900023002235
:100F700044F21601022000F0CBFD002076BD80B5C2
:100F80000021FFF740FF02BD7CB504000D00DFF833
:100F9000FC04066896F84000C0070AD500200190BE
:100FA000002000902B00220044F21401012000F0E8
:100FB000AFFDF069406D002802D1F08A80F31188FE
:100FC000F069406D401CF16948656069DFF8C01444
:100FD000884212D000F0FDFE96F84000C0070AD506
:100FE00000200190002000900023392244F21401D7
:100FF000022000F08DFD39202AE0A069A843A061FD
:10100000F069406D002813D0F069406D401EF16911
:101010004865F069406D00280AD1308B002804D063
:10102000706B806880F3118802E0708B80F3118808
:1010300096F84000C0070AD50020019000200090DB
:101040000023002244F21401022000F061FD002080
:1010500076BD30B583B0DFF83404046894F84000FE
:10106000C0070AD500200190002000900023002234
:1010700044F21E01012000F04BFDE069D0F8A050C1
:1010800094F84000C0070AD500200190002000908D
:1010900000232A0044F21E01022000F039FD28003E
:1010A0003EBD2DE9FC4104000E00DFF8E0030568B9
:1010B00095F84000C0070AD500200190002000905C
:1010C0003300220044F21701012000F021FDE869FD
:1010D000406D002802D1E88A80F31188E869406DEC
:1010E000401CE96948656069DFF8A413884212D0A2
:1010F00000F06FFE95F84000C0070AD5002001906F
:10110000002000900023392244F21701022000F051
:10111000FFFC3920ADE0A0690643208A00287DD07D
:10112000A06877E007003C3FD0F8008097F82810CF
:10113000090606D5D7F8A0103140D7F8A020914273
:1011400007D097F82810090663D4D7F8A0103142C9
:101150005FD04168006808604160208A401E20829C
:10116000B868C00510D57868396801604860B5F87E
:10117000D801401EA5F8D801B86830F48070B86076
:10118000B86850F00300B8600020B86395F84000DC
:10119000C0070AD5002001900020009000233A00EB
:1011A00040F20111012000F0B3FC686AF96988423D
:1011B00001D2F86968620220B860F8694068786016
:1011C00078680068386078680760F86947600020D0
:1011D000C7F8B0000020C7F8B4000020C7F8B80076
:1011E00095F84000C0070AD500200190002000902B
:1011F0000023002240F20111022000F089FCD7F800
:10120000A0003040C7F8A000206AD7F8A01008401E
:101210008643404614F10801884283D1A661E869FB
:10122000406D002813D0E869406D401EE9694865AB
:10123000E869406D00280AD1288B002804D0686B2B
:10124000806880F3118802E0688B80F3118825F0B4
:1012500003FD95F84000C0070AD50020019000204A
:1012600000900023002244F21701022000F050FCFD
:101270000020BDE8F681F0B583B00400834805681E
:10128000288B002810D095F84000C0070AD5002010
:1012900001900020009000230D2244F21F01022043
:1012A00000F036FC0D209CE00026EF69E869406DF7
:1012B000002802D1E88A80F31188E869406D401C5B
:1012C000D5F81CC0CCF854006069DFF8C4C1604593
:1012D00003D000F07EFD392083E0D2B2002A03D093
:1012E000A0690840884205D0D2B2002A25D1A06961
:1012F000084222D0A0690840C7F8A000A069226A6D
:1013000011408843A061E869406D002813D0E86966
:10131000406D401EE9694865E869406D00280AD1C2
:10132000288B002804D0686B806880F3118802E065
:10133000688B80F31188300053E0C7F8A010D2B258
:10134000002A04D0B86A50F08000B86203E0B86A9E
:1013500030F08000B862E0680068F86317F13C0183
:10136000E2681160E168396417F13C014160208A4C
:10137000401C208240F22D40B86014F10800B86390
:10138000002B0FD00898002803D0180001F004F8B3
:1013900002E0180000F0B9FEB86B002804D04FF44A
:1013A000447601E025F069FC6069002800D1392607
:1013B000E869406D002813D0E869406D401EE96976
:1013C0004865E869406D00280AD1288B002804D0C0
:1013D000686B806880F3118802E0688B80F3118865
:1013E0003000FEBD2DE9F04186B004000D0016006E
:1013F00098462648076897F84000C0070AD5CDF8F8
:101400000480F6B200962B00220044F21C01012059
:1014100000F07EFBB8F1000F1AD002A81D49B1E818
:101420000C10A0E80C100C390C38DDE90223404602
:10143000002110185941CDE902010020009002ABB3
:101440003200D2B229002000FFF715FF040009E0A6
:101450000020009000233200D2B229002000FFF7C4
:101460000AFF040097F84000C0070AD50020019049
:10147000002000900023220044F21C01022000F012
:1014800047FB200006B0BDE8F0810000C804FF1F44
:101490006E76656C44D2020010B586B004006846D2
:1014A00001F024FC00280CD14FF48071684602F052
:1014B00065F80821684601F0F1FF6946200001F057
:1014C000DDFC06B010BD10B588B0040004A801F022
:1014D00045F946F2724000FB04F0401E02F008FAA3
:1014E00001A801F03BF96A4604A901A800F0E9FF50
:1014F00008B010BD80B54FF47A70424908604FF4CF
:101500007A7041490860414A4FF48271404800684E
:1015100002F0F9F901203F49087080203E49086136
:1015200000203D4908703D483B49C8603A4935486C
:10153000006802F007FA3449086012E03849096887
:10154000401A4FF47A71484335490968B0FBF1F00D
:101550002C49086030492B48006802F0F3F92A4909
:1015600008600520FFF7AFFF2D4909688842E5D2E2
:101570000020E6E738B55FF0FF35002406E00520DF
:10158000FFF7A1FFA84200D20500641C0A2CF6D385
:101590002348056031BD38B504000D00110000225C
:1015A000200000F093FC01222900200002F0FAF94B
:1015B00031BD70B504000D001100200002F046FAA4
:1015C000060001222900200002F0ECF9300070BD75
:1015D00010B5040001F0BCF860434FF47A71B0FB21
:1015E000F1F0002800D1012010BD80B500F000FD11
:1015F00001BD80B500F0DDFB0A480B49086000BF63
:10160000FDE70000084A0020204A0020100AFF1FC2
:10161000404A0020DB5800200C4A0020544E002095
:10162000044A00200400FA050CED00E07CB505003A
:10163000DFF8AC0402F044FA002809D0DFF8A40473
:101640000468D4F8700302F051FAD4F87403CDE0C2
:1016500068680F3004092401DFF888040460DFF8AB
:1016600088042060DFF8840420604FF47D7100223C
:10167000200002F04DFA4FF4FC70204495EC0C0B66
:1016800080EC0C0BC4F8FC41D4F800020009000106
:10169000C4F8000200F081F902F0BDFE0500002D43
:1016A00002D0280000F0A3F8D4F82002002804D0CB
:1016B000D4F82062D4F8045219E0D4F80402B0F54A
:1016C000AC7F03D24FF4AC70C4F80402D4F8040227
:1016D00010F11005280002F00DFE0600002E02D1C8
:1016E000042000F084F80221300002F0DDFE290021
:1016F000300003F0E9FD06EB0500401E0009000183
:10170000E0634FF4AC75280002F0F4FD0600002EF3
:1017100002D1042000F06BF80121300002F0C4FE79
:1017200006EB0500401E0009000114F15005B0F160
:1017300064016961286116F10F0000090001A861C8
:101740006869DFF8AC13086003F0E8FE0500002DBF
:1017500002D0280000F04BF801214FF40A70204419
:1017600003F083FF01214FF4B670204403F07DFFA6
:1017700004F098FA0500002D02D0280000F037F898
:10178000002001900020009001230022E069C16840
:101790004FF45270204403F09FFC0500002D02D14D
:1017A000042000F024F8280003F098FDD4E9DF01BC
:1017B0000A3051F10001C4E9DF010020019000204E
:1017C000009001230022E069C1684FF44A70204470
:1017D00003F082FC0500002D02D1042000F007F880
:1017E000280003F07BFD25F033FA002076BD30B5EC
:1017F00083B00400002500F0DCFADFF8E802056899
:1018000095F84000C0070AD5002001900020009004
:101810000023220040F20121012000F079F9C5F8EF
:101820007443D5F86803002802D0D5F868038047D0
:101830000121DFF8AC0202F04DF937BD70B5DFF8D9
:10184000A4020468D4F8F003002855D0D4F8EC536F
:10185000D4F8EC0300284FD00026686E002810D47E
:101860006869A969884201D2012600E00026A869BA
:101870000068DFF88012884201D0012000E00020DB
:1018800006433200D2B2E968E069C068D4F8F033A8
:101890009847F6B2002E2FD0E06985422CD0E0693F
:1018A000406D002802D1E08A80F31188E069406D24
:1018B000401CE1694865A8680B2805D00B20A8608A
:1018C0006868296801604860E069406D002813D0AD
:1018D000E069406D401EE1694865E069406D00289F
:1018E0000AD1208B002804D0606B806880F31188B7
:1018F00002E0608B80F31188E069C4F8EC0370BDEE
:10190000784909680881704730B583B0040075488C
:10191000056895F84000C0070AD500200190002016
:1019200000900023220040F20521012000F0F0F891
:10193000C5F8684395F84000C0070AD5002001901B
:10194000002000900023002240F20521022000F038
:10195000DFF837BDF8B504000D0062480668082CB2
:1019600004D30C2003F01FFB002015E000F021FA47
:1019700006EB8400D0F8F872002F04D106EB840047
:10198000C0F8F85205E0002D03D106EB8400C0F842
:10199000F85200F01EFA3800F2BD10B55148046844
:1019A0004CF6FF3020824FF4FF70608208202060E8
:1019B000012060600220E0810F2060810F20A08163
:1019C000D4F8F801000450F00100C4F8CC0302F090
:1019D00097F8C4F87003D4F80802002802D1012057
:1019E000FFF705FF0120C4F878030120C4F83C018B
:1019F00003F06CFD14F15000E061E18A6183E18A3B
:101A00008184D4F8F811090441F47F4151F0FF01B9
:101A1000C160032181604FF4B0702044C4F86001BC
:101A20004FF4B0702044C4F864010020A4F86801A9
:101A30000020A4F86A014FF4E8702044C4F8D001F3
:101A40004FF4E8702044C4F8D4010020A4F8D80171
:101A50000020A4F8DA010020D4F80812002205E0E2
:101A6000CB68984200D2C868521C20310B68002B0A
:101A700003D04FF6FF739A42F2D3C4F838014FF403
:101A8000527121441C4A0A604FF457628A601B4A13
:101A90000A611B4A4A60421CCA604FF44A712144E1
:101AA000184A0A604FF4B0728A60174A0A61174AEE
:101AB0004A60801CC8604FF4A0702044C4F8400104
:101AC0004FF4A0702044C4F844010020A4F8480159
:101AD0000020A4F84A010120C4F84C0110BD000008
:101AE000200AFF1FC804FF1F50D2020054D2020078
:101AF000BC4A00206B6174730400008024D2020091
:101B0000F97401000300008034D20200A1740100C6
:101B1000F0B585B0DFF84442246894F84050ED07F2
:101B20004AD594F84050AD0603D5E569AD6A6D0419
:101B300042D5012801D0022809D194F84050AD07C0
:101B40003AD5256C0D402D0A2D02002D34D00128E8
:101B500001D1002500E00025E669766D002E02D156
:101B6000E68A86F31188E669766D761CE7697E65FC
:101B700003950B9D02950A9D0195009313000A00A1
:101B80000100002004F0CFF9E069406D002813D077
:101B9000E069406D401EE1694865E069406D0028DC
:101BA0000AD1208B002804D0606B806880F31188F4
:101BB00002E0608B80F3118805B0F0BD00B585B000
:101BC000DFF89801006890F84010890603D5C169D4
:101BD000896A490419D590F84010890715D5016C18
:101BE000C90512D5D0F8701200290ED0C3690020A3
:101BF00003905869029098680190D86800904FF45B
:101C000081720121002004F01FF905B000BD00B56C
:101C100085B0DFF84801006890F84010890603D5C8
:101C2000C169896A490419D590F84010890715D50A
:101C3000016CC90512D5D0F8701200290ED0C36905
:101C4000002003905869029098680190D86800902D
:101C500040F209120121002004F0F6F805B000BDA1
:101C600000B585B0DFF8F400006890F84010C906B0
:101C70001FD5C169426C91421BD0D0F87012002967
:101C800017D0C169416490F84010890603D5C16935
:101C9000896A49040DD5C269002003900020029092
:101CA0005069019090680090D3680521002004F0ED
:101CB000CBF805B000BD30B585B00400DFF89C005E
:101CC0000068D0F8701200291FD090F84010490722
:101CD0001BD590F84010090703D4D0F8DC018442EA
:101CE00013D0200000F0D3F80500200000F0B1F878
:101CF0000021039100210291002101910095030030
:101D000022000321002004F09FF805B030BD00B58B
:101D100085B0DFF848100968D1F87022002A19D080
:101D200091F84020520715D591F84020120703D4AE
:101D3000D1F8DC1188420DD00021039100210291DD
:101D400000210191002100910023020004210020C4
:101D500004F07AF805B000BD00000000C804FF1FC1
:101D600011B583B0DFF87C020068C46990F84000C8
:101D7000C0070AD50398019003A80090039B220096
:101D800040F202210120FFF7C3FE00F012F8A06824
:101D90000B280BD00B20A0600398A06341212000EA
:101DA00003F063FB606821680160486000F011F88F
:101DB0001FBDDFF830020068C169496D002902D1FA
:101DC000C18A81F31188C169496D491CC0694165A7
:101DD0007047DFF810020068C169496D002913D00F
:101DE000C169496D491EC2695165C169496D0029C2
:101DF0000AD1018B002904D0406B806880F31188E0
:101E000002E0408B80F311887047DFF8D80100684A
:101E1000806A704780B5DFF8CC1109688A6B002AA8
:101E200004D1182003F0BFF8002011E0CA6A9042E4
:101E300002D30A6B824204D2142003F0B4F80020CB
:101E400006E0CA6A801A896B0C2250430844406835
:101E500002BD80B5DFF88C1109688A6B002A04D1B5
:101E6000182003F0A0F8002010E0CA6A904202D3C4
:101E70000A6B824204D2142003F095F8002005E09A
:101E8000CA6A801A896B0C225043085802BD80B57B
:101E9000DFF8501109688A6B002A04D1182003F07A
:101EA00082F8002011E0CA6A904202D30A6B824293
:101EB00004D2142003F077F8002006E0CA6A801AE2
:101EC000896B0C2250430844806802BD2DE9FC4117
:101ED00007000C0015004348066896F84000C0074C
:101EE00009D500200190009523003A0040F6020138
:101EF0000120FFF70DFEB06B002804D1182003F07D
:101F000052F800203AE0F06A874202D3306BB842C0
:101F100013D2142003F047F896F84000C0070AD502
:101F200000200190002000900023002240F60201D2
:101F30000220FFF7EDFD002020E0B06BF16A791A76
:101F40000C22514300EB0108FFF733FFD8F8007073
:101F5000C8F80040C8F80850FFF73BFF96F840006B
:101F6000C0070AD5002001900020009000233A000D
:101F700040F602010220FFF7CBFD3800BDE8F681F4
:101F80002DE9F04104000D00A54201D20C2026E00D
:101F9000144806681448C6F82C011448B062281B7F
:101FA00010F101080C2000FB08F002F0BEFA070057
:101FB000002F01D1042012E00321380002F074FA4E
:101FC000B763F462356304E008483860BC60641CA1
:101FD0000C374046B0F101080028F5D10020BDE8DB
:101FE000F0810000C804FF1FEB6D0200611D0000BE
:101FF0007CB50400DFF82C08056895F84000C007A0
:102000000AD500200190002000900023220042F217
:1020100003010120FFF77CFD288B002812D00D2042
:1020200002F0C1FF95F84000C0070AD500200190DA
:102030000020009000230D2242F203010220FFF74E
:1020400067FD61E0002C11D103F0B0FF95F840006E
:10205000C0070AD500200190002000900023002234
:1020600042F203010220FFF753FD4DE0EE69641ECA
:1020700016F14401200004F025F9D6E91101801C75
:1020800051F10001C6E91101E869406D002802D153
:10209000E88A80F31188E869406D401CE969486569
:1020A00016F144024FF4DC7005EB000116F1440018
:1020B00004F048F9300000F0A8F8E869406D002805
:1020C00013D0E869406D401EE9694865E869406DD4
:1020D00000280AD1288B002804D0686B806880F320
:1020E000118802E0688B80F3118895F84000C007E2
:1020F0000AD500200190002000900023002242F227
:1021000003010220FFF704FD73BD7CB50400DFF876
:102110001407056895F84000C0070AD50020019013
:10212000002000900023220042F204010120FFF76A
:10213000EFFC002C12D10C2002F035FF95F8400086
:10214000C0070AD5002001900020009000230C2237
:1021500042F204010220FFF7DBFC55E0288B002847
:1021600012D00D2002F01FFF95F84000C0070AD5DD
:10217000002001900020009000230D2242F2040173
:102180000220FFF7C5FC3FE0EE69E869406D0028DA
:1021900002D1E88A80F31188E869406D401CE96942
:1021A000486516F144024FF4DC7005EB0001200095
:1021B00004F0C8F8300000F028F8E869406D002805
:1021C00013D0E869406D401EE9694865E869406DD3
:1021D00000280AD1288B002804D0686B806880F31F
:1021E000118802E0688B80F3118895F84000C007E1
:1021F0000AD500200190002000900023002242F226
:1022000004010220FFF784FC73BDF8B5DFF8141653
:1022100009684FF4E87201EB0206B1F8D821002AF0
:1022200027D0D1F8D071B1F8D82112F1010C01E01A
:102230003E003F68BCF1010CBCF1000F19D0D0E9A1
:102240001145D7E911239D4204D801D3944201D20C
:1022500001220CE0D7E91145D0E911239D4205D8B0
:1022600001D3944202D25FF0FF3200E00022002A44
:10227000DED44268036813605A60326802603060DE
:1022800046605060B1F8D821521CA1F8D82181686D
:1022900051F48071816024F0EDFCF1BDF0B583B0A4
:1022A0000400DFF88005056895F84000C0070AD5EE
:1022B00000200190002000900023220042F205013E
:1022C0000120FFF725FC288B002812D00D2002F0FA
:1022D0006AFE95F84000C0070AD500200190002052
:1022E000009000230D2242F205010220FFF710FCAE
:1022F00051E0002C11D103F059FE95F84000C007C1
:102300000AD500200190002000900023002242F214
:1023100005010220FFF7FCFB3DE0E869E969496D32
:10232000002902D1E98A81F31188E969496D491CC4
:10233000EA695165D5E96E6722000023B2187B4136
:10234000C0E91123FFF761FFE869406D002813D051
:10235000E869406D401EE9694865E869406D0028FC
:102360000AD1288B002804D0686B806880F311881C
:1023700002E0688B80F3118895F84000C0070AD509
:1023800000200190002000900023002242F205016D
:102390000220FFF7BDFBF7BD7CB50400DFF8840425
:1023A000056895F84000C0070AD50020019000207C
:1023B00000900023220042F206010120FFF7A8FB53
:1023C000002C12D10C2002F0EEFD95F84000C00761
:1023D0000AD5002001900020009000230C2242F238
:1023E00006010220FFF794FB51E0288B002812D051
:1023F0000D2002F0D8FD95F84000C0070AD5002056
:1024000001900020009000230D2242F206010220DC
:10241000FFF77EFB3BE0E86910F144014CCC4CC176
:102420000C3C0C39E969496D002902D1E98A81F334
:102430001188E969496D491CEA695165FFF7E5FEB4
:10244000E869406D002813D0E869406D401EE969D5
:102450004865E869406D00280AD1288B002804D01F
:10246000686B806880F3118802E0688B80F31188C4
:1024700095F84000C0070AD5002001900020009088
:102480000023002242F206010220FFF741FB73BD48
:1024900080B5002803D0002901D0002A01D10C20EA
:1024A00002E003F073FF002002BD10B584B01400F9
:1024B0006A46FFF7EDFF2100684603F0D7FF04B03E
:1024C00010BD10B584B014006A46FFF7E1FF21008B
:1024D000684604F021F804B010BD30B4B0F9003003
:1024E00009B293FBF1F3B0F9004013FB01F5641B53
:1024F0000480B0F90040002C03D50488091901803C
:102500005B1E1BB2002B0CD5B2F90000002816D5BB
:102510001BB2B2F90000D0F5805083420FDA0020E0
:1025200011E0B2F90000012809DB47F6FF70B2F9AB
:102530000010401A1BB2984201DA002003E0108814
:1025400018181080012030BC7047F8B504000D0049
:10255000002C01D0002D01D10020EDE014F10A0281
:102560004FF47A7114F10C00FFF7B7FF002801D186
:102570000020E1E014F108023C2114F10A00FFF709
:10258000ACFF002801D10020D6E0A21D3C2114F1AF
:102590000800FFF7A2FF002801D10020CCE0221D97
:1025A0001821A01DFFF799FF002801D10020C3E0EA
:1025B0006088401E608022000C21A01CFFF78DFF68
:1025C000002801D10020B7E06088401C608004E052
:1025D000012060802088401C2080208880B200F08C
:1025E000BAFADFF8F8161A2202FB00F21144B4F925
:1025F000022031F81210B4F9042091421CDAA188AB
:10260000DFF8D8261A2358431044B4F9022030F9D1
:102610001200081AA0806088401C6080B4F9020093
:102620000D28D5D0B4F902000028D6D10C20608046
:102630002088401E2080D0E7B4F9041000290FD173
:10264000A188DFF898261A2358431044B4F90220D1
:1026500030F912004018A0806088401E6080DDE7DD
:10266000B4F9000040F2B271884201DA002063E060
:10267000B4F90000A0F2B27040F26D1101FB00F657
:10268000B4F90000042190FBF1F0B4F900106422C9
:1026900091FBF2F1401AB4F900104FF4C87291FBAB
:1026A000F2F10818A0F2DD108619208880B200F03F
:1026B00052FA002800D0761EB4F90220002109E069
:1026C000DFF818361A2707FB00F73B4433F81230BF
:1026D00011FA83F1521E002AF2D1B4F90400401E0F
:1026E00041188E19B4F906004FF4616210FB02F034
:1026F000B4F908203C2312FB0300B4F90A20801827
:10270000DFF8DC25121ADFF8DC35B2FBF3F2B24257
:1027100001D2002010E0DFF8CC2502FB0600286083
:10272000B4F90C006860301D0722B0FBF2F302FB25
:102730001300E08121820120F2BD10B584B00400B5
:10274000684600F00BF82100684603F0EBFE1FBD61
:10275000DFF884050068D0F8E401704738B504005C
:10276000002C42D0DFF870050568E869406D00284C
:1027700002D1E88A80F31188E869406D401CE9695C
:1027800048654FF4DC7028440EC80EC40C380C3C6D
:10279000D5F8F001002805D0D5F8F401D5F8F011EE
:1027A0008847A06022004FF4E27005EB0001200092
:1027B00003F0C8FDE869406D002813D0E869406D5A
:1027C000401EE9694865E869406D00280AD1288BF8
:1027D000002804D0686B806880F3118802E0688B61
:1027E00080F31188200003F0EDFE31BD10B50D48D7
:1027F0000468D4F8F001002801D1002010E0D4F8DA
:10280000F401D4F8F0118847DFF8DC14D4F8E4219F
:10281000B1FBF2F14843D4F8EC11B0FBF1F080B217
:1028200010BD0000C804FF1FF0B583B0DFF8A80496
:102830000468D4E96E01401C71F1FF31C4E96E01F6
:10284000E069406D002802D1E08A80F31188E069D8
:10285000406D401CE1694865D4F8F001002806D0BD
:10286000D4F8F401D4F8F0118847C4F8C0014FF44B
:10287000DC70204403F0A6FEB4F8D851002D70D0CF
:10288000D4F8D0614EE0B4F8D801401EA4F8D801C5
:102890007068316801604860B068400508D5306CE8
:1028A000F16B01604860B06B0089401EB16B08811C
:1028B00094F84000C0070AD5002001900020009045
:1028C0000023320040F201110120FFF721F9606A74
:1028D000F169884201D2F06960620220B060F0695B
:1028E0004068706070680068306070680660F06909
:1028F00046600020C6F8B0000020C6F8B4000020F2
:10290000C6F8B80094F84000C0070AD5002001902E
:10291000002000900023002240F201110220FFF766
:10292000F7F83E002800451E00281AD03768D6E97F
:102930001101D4E96E23994204D801D3904201D207
:1029400001200CE0D4E96E01D6E91123994205D8A3
:1029500001D3904202D25FF0FF3000E00020002857
:1029600091D5E66996F82800400760D5D6E92C0194
:10297000401C71F1FF31C6E92C01B06AC00456D485
:10298000D6E92901D6E92C23994204D801D39042F3
:1029900001D201200CE0D6E92C01D6E92923994285
:1029A00005D801D3904202D25FF0FF3000E0002052
:1029B00000283CD4706831680160486094F8400099
:1029C000C0070AD5002001900020009000233200AB
:1029D00040F201110120FFF79BF8606AF16988421B
:1029E00001D2F06960620220B060F06940687060F6
:1029F00070680068306070680660F06946600020AA
:102A0000C6F8B0000020C6F8B4000020C6F8B80030
:102A100094F84000C0070AD50020019000200090E3
:102A20000023002240F201110220FFF771F8E06953
:102A3000406D002813D0E069406D401EE169486593
:102A4000E069406D00280AD1208B002804D0606B1B
:102A5000806880F3118802E0608B80F31188D4F8DD
:102A60008803002802D0D4F888038047D4F8C00334
:102A7000002802D0D4F8C0038047F7BD30B585B038
:102A80000400DFF85402056895F84000C0070AD535
:102A900000200190606800902368220042F201014A
:102AA0000120FFF735F86068B0F57A7F0FD3206812
:102AB00061684FF47A72B1FBF2F108182060606827
:102AC0004FF47A71B0FBF1F201FB1200606002A9D1
:102AD000200003F091FDE869406D002802D1E88AEA
:102AE00080F31188E869406D401CE96948654FF43E
:102AF000E27005EB00024FF4DC7005EB000102A868
:102B000003F044FCE869406D002813D0E869406D8B
:102B1000401EE9694865E869406D00280AD1288BA4
:102B2000002804D0686B806880F3118802E0688B0D
:102B300080F3118895F84000C0070AD50020019065
:102B4000002000900023002242F201010220FEF743
:102B5000DFFF05B030BD80B2642190FBF1F201FBD4
:102B6000120100290CD180B24FF4C87190FBF1F230
:102B700001FB1200002801D101200CE000200AE036
:102B800080B2042190FBF1F201FB1200002801D178
:102B9000012000E00020C0B270474F490968C1F829
:102BA000E40170474C4A1268C2F8F001C2F8F4110F
:102BB000704749490968C1F8EC01704738B50C0005
:102BC000002801D0002C01D1002083E04449426854
:102BD0004FF47A73B2FBF3F2891A0268914201D280
:102BE000002077E0016842684FF47A73B2FBF3F299
:102BF0005118016041684FF47A72B1FBF2F302FBA5
:102C0000131141600168374AB1FBF2F5354A02FB06
:102C100015114FF46162B1FBF2F2E280B4F90620C3
:102C20004FF4616312FB03F2891A3C22B1FBF2F20A
:102C30002281B4F908203C2312FB03F2891A618136
:102C40004068A081281D0721B0FBF1F201FB1200B2
:102C5000E08105F26D1540F2B550B5FBF0F0800053
:102C600040F2B55101FB00F1B5EB910540F26D1159
:102C7000B5FBF1F1042900D1032140F26D1202FBF2
:102C80001155081800F2B17020802582208880B28A
:102C9000FFF761FF012161800CE010491A2202FB5D
:102CA00000F21144B4F9022031F812106D1A618853
:102CB000491C618009491A2202FB00F21144B4F94F
:102CC000022031F812108D42E7D2A580A088401C66
:102CD000A080012032BD0000C804FF1FB0EB02003D
:102CE000FF5686F48051010040420F0030B583B09A
:102CF0000400DFF88408056895F84000C0070AD58D
:102D00000020019000200090002322005FF00111BC
:102D10000120FEF7FDFE002C12D195F84000C007FF
:102D20000BD5002001900020009000234FF4826218
:102D30005FF001110220FEF7EBFE4FF482601AE013
:102D4000002020600020A060DFF8140960600020EF
:102D5000E0600420206195F84000C0070AD50020FB
:102D6000019000200090002300225FF0011102205A
:102D7000FEF7CEFE00203EBD30B583B0DFF8F80789
:102D8000046894F84000C0070AD500200190002094
:102D9000009000230022DFF8CC180120FEF7B8FED7
:102DA000D4F85002002810D094F84000C0070AD58B
:102DB000002001900020009000230022DFF8A418DA
:102DC0000220FEF7A5FE002057E0102001F0ADFB29
:102DD0000500002D10D194F84000C0070AD500204E
:102DE00001900020009000230422DFF878180220D0
:102DF000FEF78EFE042040E01821280001F054FB6D
:102E00002D606D600020288100206881DFF8500867
:102E1000E860FEF7CEFFD4F85002002815D0FEF788
:102E2000D8FF280001F068F994F84000C0070AD5DF
:102E3000002001900020009000230022DFF82418D9
:102E40000220FEF765FE002017E0C4F85052DFF8BC
:102E50006008C4F89002FEF7BCFF94F84000C00779
:102E60000AD5002001900020009000230022DFF806
:102E7000F4170220FEF74CFE00203EBD2DE9F04184
:102E800088B004000E00DFF8F0060568002E13D1AC
:102E900002AE3000FFF72AFF95F84000C0071AD5B0
:102EA000002001900020009000232200DFF8041889
:102EB0000120FEF72DFE0EE095F84000C0070AD570
:102EC000002001900020009033002200DFF8E4177A
:102ED0000120FEF71DFE002C12D195F84000C0071E
:102EE0000BD5002001900020009000234FF4826257
:102EF000DFF8C0170220FEF70BFE4FF48260A8E057
:102F00007068DFF85C17884212D095F84000C0075F
:102F10000BD5002001900020009000234FF4826226
:102F2000DFF890170220FEF7F3FD4FF4826090E087
:102F3000D5F85082B8F1000F18D1FFF71DFF070038
:102F4000D5F85082B8F1000F10D195F84000C007B5
:102F50000AD5002001900020009000233A00DFF8FD
:102F600054170220FEF7D4FD380072E0D8F80C00A8
:102F7000DFF8EC16884210D095F84000C0070AD55B
:102F8000002001900020009000231A22DFF824176F
:102F90000220FEF7BDFD1A205BE0FEF70AFFD8F81D
:102FA000000000E00068404516D0A042FAD1FEF7CC
:102FB00010FF95F84000C0070BD5002001900020BD
:102FC000009000234FF48262DFF8E8160220FEF73B
:102FD0009FFD4FF482603CE0306831690843A06097
:102FE000DFF87C06E060F0686061B0682061002076
:102FF000A0760020E0620020A06214F11C00E061D5
:1030000014F11C0020620020A0840020E084D8F885
:10301000040000682060D8F804100C60D8F8041090
:1030200061604460B8F80800401CA8F80800FEF78A
:10303000D0FE95F84000C0070AD50020019000207E
:10304000009000230022DFF86C160220FEF760FDDE
:10305000002008B0BDE8F0812DE9FC470400DFF84E
:103060001805056895F84000C0070AD500200190B2
:103070000020009000232200DFF858180120FEF7FE
:1030800047FDEE69288B002810D095F84000C00756
:103090000AD5002001900020009000230D22DFF8C7
:1030A00034180220FEF734FD0D20F5E1002C12D17A
:1030B00095F84000C0070BD500200190002000903B
:1030C00000234FF48262DFF80C180220FEF720FD87
:1030D0004FF48260E0E1E068DFF88415884212D0A6
:1030E00095F84000C0070BD500200190002000900B
:1030F00000234FF48262DFF8DC170220FEF708FDA0
:103100004FF48260C8E1A06AB04212D195F8400045
:10311000C0070BD50020019000200090002340F252
:103120000942DFF8B0170220FEF7F2FC40F2094036
:10313000B2E1F069C78914F11A08207A10F0030F80
:1031400000F0CF80207AC00704D55FF001095FF05E
:10315000000A03E0D4F814905FF0010AA068C005EB
:1031600040F19980E869406D002802D1E88A80F337
:103170001188E869406D401CE9694865B9F1000FA4
:1031800056D098F80000002852D0B9EB0A09A06A7E
:10319000006AC08987420BD2A06AC069C089874291
:1031A00003D23900A06A02F087FFE06A401CE062A7
:1031B000E869406D002813D0E869406D401EE96958
:1031C0004865E869406D00280AD1288B002804D0A2
:1031D000686B806880F3118802E0688B80F3118847
:1031E00002F0E4FEE869406D002802D1E88A80F32D
:1031F0001188E869406D401CE9694865E068DFF8BE
:1032000060148842BAD0FEF7E4FD95F84000C0078C
:103210000BD5002001900020009000234FF4826223
:10322000DFF8B0160220FEF773FC4FF4826033E142
:10323000B9F1000F01D08020A076E869406D002828
:103240000FD0E869406D401EE9694865E869406D46
:10325000002806D1288B002819D0686B806880F37D
:103260001188B9F1000F3AD195F84000C0070BD58D
:103270000020019000200090002340F20642DFF879
:1032800054160220FEF744FC40F2064004E1688B2D
:1032900080F31188E5E7B9F1000FE2D0404623F052
:1032A00039FE0028DDD0B9EB0A0902F07FFEE068A4
:1032B000DFF8AC138842EED095F84000C0070BD57C
:1032C000002001900020009000234FF48262DFF87C
:1032D00004160220FEF71CFC4FF48260DCE0A662BC
:1032E00092E0E869406D002802D1E88A80F31188F5
:1032F000E869406D401CE969486598F800000028BD
:103300004DD0A068C00510D5A06A006AC089874268
:103310000BD2A06AC069C089874203D23900A06A73
:1033200002F0CAFEE06A401CE06270683168016029
:10333000486014F11C00B063207A000705D5310005
:1033400014F11C0002F026FF0AE0206A00683060D9
:10335000216A0E60216A71604660A08C401CA084C6
:1033600040F22320B06023F085FCE068DFF8F01223
:10337000884217D0FEF72DFD95F84000C0070BD509
:10338000002001900020009000234FF48262DFF8BB
:1033900044150220FEF7BCFB4FF482607CE08020E5
:1033A000A076A662A06810F48470B0F5807F13D177
:1033B00014F11C0002F009FF8146306AC089814582
:1033C0000AD2F069C089814503D24946300002F033
:1033D00073FEE06A401CE062E869406D002813D08B
:1033E000E869406D401EE9694865E869406D00285C
:1033F0000AD1288B002804D0686B806880F311887C
:1034000002E0688B80F31188A068800534D5E869F4
:10341000406D002802D1E88A80F31188E869406D88
:10342000401CE96948652069316AC98988420BD224
:103430002069F169C989884203D22169300002F00C
:103440003BFEE06A401CE062E869406D002813D052
:10345000E869406D401EE9694865E869406D0028EB
:103460000AD1288B002804D0686B806880F311880B
:1034700002E0688B80F3118895F84000C0070AD5F8
:10348000002001900020009000230022DFF8441467
:103490000220FEF73DFB0020BDE8F6877CB5040066
:1034A0000D003548066896F84000C0070AD5002090
:1034B0000190002000902B002200DFF81C14012056
:1034C000FEF726FB002C12D196F84000C0070BD562
:1034D000002001900020009000234FF48262DFF86A
:1034E000F8130220FEF714FB4FF4826042E060689C
:1034F0005B49884212D096F84000C0070BD50020E7
:1035000001900020009000234FF48262DFF8C8137E
:103510000220FEF7FDFA4FF482602BE0012D18D057
:10352000022D16D0042D14D0082D12D096F840008C
:10353000C0070BD5002001900020009000234FF41D
:103540008262DFF894130220FEF7E2FA4FF4826001
:1035500010E0256196F84000C0070AD500200190D0
:103560000020009000230022DFF86C130220FEF7F9
:10357000CFFA002076BD0000C804FF1F7CB5040010
:103580000D00DFF85803066896F84000C0070AD51A
:1035900000200190002000902B002200DFF8401353
:1035A0000120FEF7B5FA002C12D196F84000C007B2
:1035B0000BD5002001900020009000234FF4826280
:1035C000DFF81C130220FEF7A3FA4FF4826045E0F7
:1035D00060682349884212D096F84000C0070BD596
:1035E000002001900020009000234FF48262DFF859
:1035F000F0120220FEF78CFA4FF482602EE0B5F54F
:10360000807F1AD0B5F5007F17D0002D15D0B5F505
:10361000407F12D096F84000C0070BD500200190E3
:103620000020009000234FF48262DFF8B4120220E1
:10363000FEF76EFA4FF4826010E0256096F84000C5
:10364000C0070AD50020019000200090002300222E
:10365000DFF88C120220FEF75BFA002076BD000036
:103660007874756D0500010070B50400DFF86C0218
:103670000568D5F85062002E19D0F068DFF86412A2
:10368000884214D1FEF795FB306804E0E969816255
:1036900000F012F83068B04207D0817E002902D0D5
:1036A000816AA142F2D00068F5E7FEF792FB70BD97
:1036B0006936000006000100F0B583B004008748B9
:1036C000056895F84000C00709D50020019000204A
:1036D00000900023220084490120FEF719FAEE69C8
:1036E000002C11D195F84000C0070AD500200190A8
:1036F0000020009000234FF482627B490220FEF7F5
:1037000007FA4FF48260E4E0E0687649884211D01D
:1037100095F84000C0070AD50020019000200090D5
:1037200000234FF4826270490220FEF7F1F94FF452
:103730008260CEE0A07E802811D095F84000C007BE
:103740000AD5002001900020009000234FF48262EF
:1037500065490220FEF7DCF94FF48260B9E0A06A07
:10376000B04211D095F84000C0070AD50020019062
:103770000020009000234FF482625B490220FEF794
:10378000C7F94FF48260A4E0E869406D002802D1D7
:10379000E88A80F31188E869406D401CE969486552
:1037A000E76A0020E062207A10F0030F04D00020C6
:1037B000A0620020A0765FE0A08C002858D0E669C7
:1037C0007068316801604860A08C401EA084A662C9
:1037D00095F84000C0070AD5002001900020009015
:1037E0000023320040F201110120FEF791F9686ACE
:1037F000F169884201D2F06968620220B060F06924
:103800004068706070680068306070680660F069D9
:1038100046600020C6F8B0000020C6F8B4000020C2
:10382000C6F8B80095F84000C0070AD500200190FE
:10383000002000900023002240F201110220FEF738
:1038400067F9A068800510D52069316AC989884266
:103850000BD22069F169C989884203D221693000FD
:1038600002F02AFCE06A401CE06223F0F5F903E074
:103870000020A0760020A062002F03D03900E86964
:1038800002F04CFCE869406D002813D0E869406DF7
:10389000401EE9694865E869406D00280AD1288B17
:1038A000002804D0686B806880F3118802E0688B80
:1038B00080F3118895F84000C00709D500200190D9
:1038C000002000900023002207490220FEF720F983
:1038D0000020FEBD090001000C000100C804FF1F0C
:1038E000030001007874756D0B00010000000000FA
:1038F000401E00BF00BF00BF0028F9DC00BF00BFB2
:1039000000BF00BF704710B503000020002B02D19C
:103910005FF0FF3015E00C00012C02D0022C03D028
:1039200005E0996811600CE01168996009E01C6875
:10393000206A002803D01800236A984701E040F667
:10394000092010BD10B40A78002A11D1002203E02A
:10395000CB6843F82200521C0B699A42F8D30A69DB
:1039600002FB00F28A6000224A6001220A7016E01F
:103970004A68521C0B699A4200D300228B68CC68BB
:1039800054F822401B1B8B60CB6843F822008B68E5
:10399000C01888604A608868096990FBF1F010BC23
:1039A00070470000F8B5284DB0F11003082901D385
:1039B0000C2026E0FB2823D29C0805EB84049E08FB
:1039C00005EB8605D5F80053FF2613F00307FFB279
:1039D000FF00BE40B543490111F0E00113F00303BD
:1039E000DBB2DB0099402943C4F80013D2B2002AAD
:1039F00002D000F007F801E000F013F8002000E02A
:103A00000C20F2BD10491038FB2808D2012210F01A
:103A10001F039A40400941F82020002000E00C20BC
:103A2000704709491038FB280BD2420901EB82018B
:103A3000012210F01F0012FA00F0C1F880000020EF
:103A400000E00C207047000000E100E02DE9FC419F
:103A500004000D001948066896F84000C0070AD512
:103A600000200190002000902B00220040F6010170
:103A70000120FEF74DF800275FF00008FF2C01D968
:103A8000142705E000F03CF850F8248040F824505A
:103A9000380001F088FA96F84000C0070AD50020E7
:103AA0000190002000903B00424640F601010220B8
:103AB000FEF72EF84046BDE8F68100BFC804FF1FA0
:103AC000EC46A0E8F00FA0E80050A0EC108B00201E
:103AD00070470000002908BF491CB0E8F00FB0E8AB
:103AE0000050B0EC108BE5460800704706490968A5
:103AF000C1F8700305490968044A1060080070475E
:103B00000248006870470000C804FF1F08ED00E08D
:103B100062F30F2262F31F42401810F0030308D033
:103B2000C91A1FD3DB0748BF00F8012D28BF20F8B2
:103B3000022D130030B414461546103928BF20E971
:103B40003C00FAD8490728BF20E90C0048BF40F8DC
:103B5000042D890028BF20F8022D48BF00F8012D50
:103B600030BC7047C91818BF00F8012DCB0728BF1B
:103B700000F8012D704700002DE9F04705000E0008
:103B800014001F005FF000095FF0000AA068DFF872
:103B90002819884204D0382001F005FA00206FE08F
:103BA0000C35102D00D2102515F10F0005092D013F
:103BB000FEF7FFF8D4F81480D4F8149002E0C14660
:103BC000D8F80880B8F1000F47D0C4F81880FEF785
:103BD00000F9FEF7EEF8A069804502D0D4F8148011
:103BE000C146B8F1000F38D0D8F80000A842E6D39B
:103BF000411B102909D308EB050001604460D8F887
:103C000008108160C8F8005002E00500D8F80800EC
:103C10006169884501D1606101E0C9F80800F06878
:103C2000A8F808000020A8F80A00C8F80440D8F84E
:103C3000000010EB0800401EE16A814200D2E06201
:103C4000FFB2002F07D0B5F10C01002218F10C05CE
:103C50002800FFF75DFF18F10C0A6069A061606938
:103C6000E06160692062E0686062E068A062FEF77F
:103C7000B0F8BAF1000F02D1042001F094F95046D7
:103C8000BDE8F0872DE9F84305000E0017005FF04E
:103C900000081C005FF00009A068DFF81C188842CB
:103CA00004D0382001F07FF9002072E00C35102D8F
:103CB00000D2102515F10F0005092D01FEF779F846
:103CC000D4F8148001E0D8F80880B8F1000F4DD086
:103CD000C4F81880FEF77DF8FEF76BF8A069804500
:103CE00001D0D4F81480B8F1000F3FD0D8F80010FC
:103CF000B6F10C0018F110029042E4D308EB010079
:103D000006EB05020C3A9042DDD3B6F10C00B0EBA5
:103D10000803491BCA1AC8F80030102A09D300EB5F
:103D200005010A604C60D8F808208A60C8F80810BD
:103D300002E05519D8F8081005608160F968018122
:103D4000002141814460D8F8000010EB0800401EBB
:103D5000E16A814200D2E0620898002805D0B5F1FE
:103D60000C0100223000FFF7D3FEB1466069A0616C
:103D70006069E06160692062E0686062E068A0629A
:103D8000FEF727F8B9F1000F02D1042001F00BF97A
:103D90004846BDE8F2832DE9F8430500894617003F
:103DA0001C005FF00008102D00D21025B9F1000FA3
:103DB00009D0B9F1010019EA000F04D00C2001F07C
:103DC000F2F8002088E0B9F1100F01D25FF010097D
:103DD000A068DFF8E416884204D0382001F0E3F848
:103DE000002079E00C35102D00D2102515F10F00C0
:103DF00005092D01FDF7DDFF666901E03100B668B8
:103E0000002E56D0A661FDF7E4FFFDF7D2FFA069B2
:103E1000864201D066693100002E4AD019EB0600B7
:103E20000C30B9F101018843801BB0F10C02202A4B
:103E300008D219EB06003C30B9F101018843801B20
:103E4000B0F10C02306851198842D7D331001644C2
:103E5000801A0A608A68B260421B102A07D306EBF8
:103E6000050002604460B2688260B06001E0050055
:103E7000B06835606269964201D1606100E0886097
:103E8000F868308100207081746030688019401EAD
:103E9000E16A814200D2E0620898002807D0B5F1BB
:103EA0000C01002216F10C052800FFF731FE16F177
:103EB0000C086069A0616069E06160692062E06887
:103EC0006062E068A062FDF784FFB8F1000F02D1E4
:103ED000042001F068F84046BDE8F28330B583B0B5
:103EE0000400DFF8A806056895F84000C0070AD569
:103EF00000200190002000900023220041F21001D8
:103F00000120FDF705FE0023D5F89823E96920007C
:103F1000FFF732FE040095F84000C0070AD50020E4
:103F20000190002000900023220041F210010220A5
:103F3000FDF7EEFD20003EBD7CB504000D00DFF86E
:103F40004C06066896F84000C0070AD5002001908C
:103F5000002000900023220041F21F010120FDF704
:103F6000D7FD00200090D6F89833F2692900200090
:103F7000FFF788FE040096F84000C0070AD500202D
:103F80000190002000900023220041F21F01022036
:103F9000FDF7BEFD200076BDDFF8F4050068D0F81F
:103FA0009803704730B583B00400DFF8E405056876
:103FB00095F84000C0070AD500200190002000902D
:103FC0000023220041F212010120FDF7A1FD01238F
:103FD000D5F89823E9692000FFF7CEFD040095F895
:103FE0004000C0070AD50020019000200090002367
:103FF000220041F212010220FDF78AFD20003EBDA1
:10400000F0B583B004000E001700DFF880050568E6
:1040100095F84000C0070AD50020019000200090CC
:104020003B00320041F214010120FDF771FD06EB67
:10403000070000090001206116F10F0000090001CE
:10404000E060E0622169091A01600021816044603A
:104050006061A061E0612062FDF7ABFED5F88C03E2
:1040600000280FD14FF463702844C5F88C034FF437
:1040700063702844C5F890030020A5F8940300203D
:10408000A5F89603D5F8900300682060D5F8901342
:104090000C60D5F8901361604460B5F89403401C3F
:1040A000A5F89403FDF795FEDFF80C04A06095F8E1
:1040B0004000C0070AD50020019000200090002396
:1040C000220041F214010220FDF722FD2000FEBD76
:1040D00038B50C000F3005092D01302100222800D1
:1040E000FFF716FD15F13000B4F130020100280091
:1040F000FFF786FF280032BD2DE9FC4105000024B2
:10410000DFF88804046894F84000C0070AD500204E
:1041100001900020009000232A0041F215010120A7
:10412000FDF7F6FC002D13D1012000F03CFF94F8C0
:104130004000C0070AD50020019000200090002315
:10414000012241F215010220FDF7E2FC0120A1E06D
:104150000C3D6E68B068DFF86013884213D03820D9
:1041600000F021FF94F84000C0070AD5002001901C
:10417000002000900023382241F215010220FDF7B3
:10418000C7FC382086E02889E169C96889B288427D
:1041900009D028894FF6FF71884204D0032000F02F
:1041A00002FF032076E0FDF704FE776909E0BF68AF
:1041B000F761FDF70EFEFDF7FCFDF069874200D0C8
:1041C00077697069002802D07069854214D27769D6
:1041D00028682844B8420BD1286839680818286034
:1041E000B868A8600C2100223800FFF791FC00E0BD
:1041F000AF607561002006E0B868854202D3B868F8
:104200000028D4D10120C0B2002827D02868284433
:10421000B96888420FD12868B96809680818286009
:10422000B8688068A8600C210022D7F80880404652
:10423000FFF76EFC01E0B868A86038683844A8420F
:104240000BD13868296808183860A868B8600C2154
:1042500000222800FFF75CFC00E0BD607069B061DF
:104260007069F06170693062F0687062F068B06225
:10427000FDF7AFFD94F84000C0070AD5002001907B
:10428000002000900023002241F215010220FDF7DA
:104290003FFC0020BDE8F6817CB504000D00DFF88E
:1042A000F402066896F84000C0070AD50020019085
:1042B0000020009000232A0041F217010120FDF7A1
:1042C00027FC0023220016F150012800FFF754FCC0
:1042D000040096F84000C0070AD500200190002095
:1042E00000900023220041F217010220FDF710FC8C
:1042F000200076BD30B583B00400DFF89802056871
:1043000095F84000C0070AD50020019000200090D9
:104310000023220041F216010120FDF7F9FB0023E2
:10432000D5F8982315F150012000FFF725FC040073
:1043300095F84000C0070AD50020019000200090A9
:104340000023220041F216010220FDF7E1FB2000CC
:104350003EBD7CB504000D00DFF83802066896F813
:104360004000C0070AD500200190002000902B00DB
:10437000220041F226010120FDF7CAFB0020009037
:10438000D6F8983316F1500229002000FFF703FDFC
:10439000040096F84000C0070AD5002001900020D4
:1043A00000900023220041F226010220FDF7B0FB1D
:1043B000200076BDF0B583B004000D001600DFF8D4
:1043C000D401076897F84000C00709D50020019084
:1043D00000962B00220041F227010120FDF798FBF7
:1043E00000200090230017F1500231002800FFF751
:1043F000D2FC040097F84000C0070AD500200190C5
:10440000002000900023220041F227010220FDF746
:104410007FFB2000FEBD80B5DFF8780102684FF415
:104420007D7002EB00010800C2F898033031D2F829
:104430000022521AFFF7E4FD002002BDF8B5040087
:104440000D00DFF850010668002D03D1D6F88C73FB
:10445000FD6803E00C3D6F6828680544FDF7A9FC82
:10446000786901E029680D4439698D4211D22989A2
:10447000E26892B29142F5D100E08068002801D054
:10448000A842FAD3A842EDD0FDF7A3FC15F10C0029
:1044900009E03F68FD684FF4637030448742DFD124
:1044A000FDF797FC0020F2BD002803D00C384181B5
:1044B000012000E00020704770656D6C0C38C96801
:1044C000018170470C38D1680181002070477CB5AC
:1044D00004000D00DFF8BC00066896F84000C00735
:1044E0000AD5002001900020009000232A0041F20C
:1044F0001A010120FDF70CFB0123220016F15001E7
:104500002800FFF739FB040096F84000C0070AD5E1
:1045100000200190002000900023220041F21A01A7
:104520000220FDF7F5FA200076BD30B583B0040017
:10453000DFF86000056895F84000C0070AD5002044
:104540000190002000900023220041F21901012077
:10455000FDF7DEFA0123D5F8982315F1500120006C
:10456000FFF70AFB040095F84000C0070AD50020B9
:104570000190002000900023220041F21901022046
:10458000FDF7C6FA20003EBD00000000C804FF1F72
:10459000C804FF1FC804FF1F2DE9F04389B00400C1
:1045A0000D0016001F005FF00008DFF8A407D0F828
:1045B000009099F84000C0070AD5002001900096AD
:1045C0002B00A4B222004FF482710120FDF7A0FA63
:1045D000002D13D5152000F0E6FC99F84000C00727
:1045E0000AD50020019000200090152300224FF4EE
:1045F00082710220FDF78CFA0020BDE0A4B2002CED
:104600003CD1D9F8F841FFB20097002300223100D5
:10461000280000F001FD002800F09C80D0F80C80FC
:10462000D9F81C10496D002903D1B9F8161081F38F
:104630001188D9F81C10496D491CD9F81C20516506
:1046400000F04CFED9F81C00406D002800F080807E
:10465000D9F81C00406D401ED9F81C104865D9F8E7
:104660001C00406D002873D1B9F8180000286BD0E9
:10467000D9F83400806880F3118869E0A4B2FF2C77
:1046800013DD132000F08FFC99F84000C0070AD515
:104690000020019000200090132300224FF482712B
:1046A0000220FDF735FA002066E0A4B2D9F8F8013F
:1046B0008442A8D0D9F8C403002831D00120002DAD
:1046C0001BD1F1690891B16907917169069131694E
:1046D0000591F1680491B1680391716802913168A4
:1046E00001910821009141F202030722210089B2C1
:1046F000C0B2D9F8C443A0470EE003960295A4B215
:1047000001940321009141F201030722210089B2A3
:10471000C0B2D9F8C443A047D9F81C00806B2BE085
:10472000132000F040FC99F84000C0070AD5002093
:10473000019000200090132300224FF48271022088
:10474000FDF7E6F9002017E0B9F81A0080F31188A8
:1047500022F082FA99F84000C0070CD500200190A1
:1047600000200090D9F81C00C36D42464FF48271BE
:104770000220FDF7CDF9404609B0BDE8F08380B5D1
:10478000002380B2FFF708FF02BDF0B589B0040036
:104790000D001600DFF8F006076897F84000C00724
:1047A0000AD50020019000962B00A4B2220040F20E
:1047B00005110120FDF7ACF9002D13D5152000F0EF
:1047C000F2FB97F84000C0070AD5002001900020B6
:1047D00000901523002240F205110220FDF798F900
:1047E000002089E0A4B2002C0FD1D7F8F8410020B6
:1047F0000090002300223100280000F00DFC00286A
:1048000068D003218160C46865E0A4B2FF2C13DD89
:10481000132000F0C8FB97F84000C0070AD500201D
:104820000190002000901323002240F20511022085
:10483000FDF76EF900205FE0A4B2D7F8F8018442DA
:10484000D5D0D7F8C403002830D00120002D1BD1CB
:10485000F1690891B1690791716906913169059112
:10486000F1680491B1680391716802913168019116
:104870000821009141F202030722210089B2C0B24F
:10488000D7F8C443A0470EE003960295A4B2019462
:104890000321009141F201030722210089B2C0B235
:1048A000D7F8C443A047F869806B25E0132000F0D7
:1048B0007AFB97F84000C0070AD50020019000203D
:1048C00000901323002240F205110220FDF720F989
:1048D000002011E0002497F84000C0070BD500200D
:1048E000019000200090F869C36D220040F205118C
:1048F0000220FDF70DF9200009B0F0BD2DE9F043CD
:1049000083B00500DFF84804046894F84000C0074D
:104910000AD5002001900020009000232A004FF4C7
:1049200083710120FDF7F4F8002D38D02E0C3000F3
:10493000D4F8F81180B289B2884230D0D4F8C403D8
:1049400000281BD094F84000C0070AD50020019031
:1049500000200090002300224FF483710220FDF715
:10496000D7F801950120009041F20303072231009E
:1049700089B20020D4F8C443A0475CE194F8400019
:10498000C0070AD5002001900020009000231222C9
:104990004FF483710220FDF7BBF812204BE1280091
:1049A00000F0BAFA0500002D03D014F15000854242
:1049B00010D194F84000C0070AD5002001900020D3
:1049C0000090002312224FF483710220FDF7A0F81B
:1049D000122030E14FF4B670204400F0C7FFFDF71D
:1049E000E8F9A868092817D1FDF7F3F94FF4B67074
:1049F000204400F0F8FE94F84000C0070AD50020DB
:104A0000019000200090002300224FF483710220C7
:104A1000FDF77EF800200EE1A868022807D1E069C2
:104A2000854228D0686829680160486023E0A8684A
:104A3000C00514D5A868C0051DD56868296801603F
:104A40004860B4F8D801401EA4F8D801A86830F432
:104A50008070A860A86850F00300A8600BE0A86808
:104A6000800508D56868296801604860A86B0089DE
:104A7000401EA96B0881A868400508D5286CE96B21
:104A800001604860A86B0089401EA96B088109205D
:104A9000A860A06CA84201D10020A064FDF799F99C
:104AA00000260CE004EB8600D0F88402002805D034
:104AB000280004EB8601D1F884128847761C102E5A
:104AC000F0D3EF68E66900212800FFF7B7FC8046C5
:104AD00015E00120C0B2AE4204D014F150014046AE
:104AE000FFF7ECFCA84509D0D5F88C00804505D02F
:104AF000686B804502D04046FFF7FEFAC846B8F121
:104B0000000F12D041462800FFF798FC8146C845A7
:104B1000DFD140F2B333DFF8F423DFF8F413DFF82A
:104B2000F40301F07DFD0020D4E75FF00040E86071
:104B3000B4F84801012806D10120C4F84C01002036
:104B4000C4F850010BE0BFB2D4F84C01874206D242
:104B5000BFB2C4F84C71286F6C38C4F85001286F8C
:104B6000E96E01604860B4F84801401EA4F84801AD
:104B70004FF4B670204400F036FEB54231D1FDF757
:104B800018F96868296801604860686B002809D0D6
:104B900014F15001686BFFF791FC686BFFF7ACFAFA
:104BA00000206863280001F03DFD95F8280080068C
:104BB00015D4D5F88C00002809D014F15001D5F88F
:104BC0008C00FFF77BFCD5F88C00FFF795FA14F109
:104BD00050012800FFF772FC2800FFF78DFA22F041
:104BE00039F8686B002804D0686BFFF785FA00205D
:104BF0006863280001F016FD95F8280080060AD4A5
:104C0000D5F88C00002803D0D5F88C00FFF774FA93
:104C10002800FFF771FA94F84000C0070AD5002079
:104C2000019000200090002300224FF483710220A5
:104C3000FCF76EFF0020BDE8FE8380B50021FFF782
:104C40005DFE02BD7CB505000C004148066896F883
:104C50004000C0070AD500200190002000902300EA
:104C60002A004FF48D710120FCF752FF280000F05C
:104C700053F9002813D1122000F095F996F840005E
:104C8000C0070AD5002001900020009000230022D8
:104C90004FF48D710220FCF73BFF002013E0D0F8A9
:104CA0008050C0F8804096F84000C0070AD5002028
:104CB00001900020009000232A004FF48D71022003
:104CC000FCF726FF280076BD80B500F025F9002806
:104CD00004D1122000F067F9002001E0D0F8800034
:104CE00002BDF8B50400DFF8A00105684FF4B67006
:104CF000284400F03BFED5F84001B0F16C06B5F851
:104D0000487103E07F1EF06EB0F16C06002F10D0EA
:104D1000002E0ED032222100B06E006901F083FC1B
:104D20000028EFD14FF4B670284400F05CFDF06825
:104D300005E04FF4B670284400F055FD0020F2BDA8
:104D400080B551480068C06900F004F802BD000059
:104D5000C804FF1F80B501F07CFC806D02BD7CB5EE
:104D6000060034004848056895F84000C0070AD599
:104D700000200190002000900023220040F2011149
:104D80000120FCF7C5FE002E12D1122000F00BF915
:104D900095F84000C0070AD500200190002000903F
:104DA0000023002240F201110220FCF7B1FE69E06D
:104DB000E068000C80B2D5F8F811884212D01220B9
:104DC00000F0F1F895F84000C0070AD500200190E6
:104DD000002000900023002240F201110220FCF785
:104DE00097FE4FE0E869406D002802D1E88A80F321
:104DF0001188E869406D401CE9694865A06802288F
:104E000023D1FCF7E6FF95F84000C0070AD5002043
:104E10000190002000900023220040F201110120A7
:104E2000FCF776FE112000F0BEF895F84000C007B0
:104E30000AD500200190002000900023002240F2BB
:104E400001110220FCF764FE1CE0200000F046FA8D
:104E5000E869406D002813D0E869406D401EE9699B
:104E60004865E869406D00280AD1288B002804D0E5
:104E7000686B806880F3118802E0688B80F311888A
:104E800021F0EAFE73BD0000C804FF1F30B583B0F7
:104E9000DFF83006046894F84000C0070AD5002007
:104EA0000190002000900023002240F21F110120F9
:104EB000FCF72EFEE569FCF77CFFA86A50F48050F1
:104EC000A862FCF786FF94F84000C0070AD50020CE
:104ED0000190002000900023002240F21F110220C8
:104EE000FCF716FE37BDDFF8DC050068018B0029F2
:104EF00002D0406BC06801E0C069C06D7047DFF848
:104F0000C4050068C069C068704700004CEB02002F
:104F100018EB020030EB020010B5DFF8A8150A68A4
:104F2000002801D1D0693DE0D16D884202D112F153
:104F3000500037E0D169496D002902D1D18A81F34F
:104F40001188D169496D491CD3695965D2F840115E
:104F50006C39B2F8483101E0C96E6C391C00631E2F
:104F6000002C1CD0CC688442F6D1D069406D00285A
:104F700013D0D069406D401ED3695865D069406D2B
:104F800000280AD1108B002804D0506B806880F371
:104F9000118802E0508B80F31188080002E0FCF7D2
:104FA00018FF002010BD7CB50400DFF81805056867
:104FB00095F84000C0070AD500200190002000901D
:104FC0000023220040F203210120FCF7A1FD288BE1
:104FD000002802D0686BC66801E0E869C66D002C45
:104FE00001D0002E07D1288B002802D0686BC46046
:104FF00001E0E869C46595F84000C0070AD50020C3
:105000000190002000900023320040F20321022092
:10501000FCF77EFD300076BD2DE9F04383B00F0034
:1050200014001D00DFF89C140E68002811D05FF0FA
:105030000008B946D6F8087200E020373968002920
:1050400002D039688142F8D13868002805D100279C
:1050500003E0D7F818905FF00108002F04D110206A
:10506000FFF7A1FF002015E04FF4B670304400F0C8
:105070007DFC019500944346DBB24A46F069C16865
:10508000380000F029F804004FF4B670304400F006
:10509000AAFB2000BDE8FE831CB5DFF828040468E5
:1050A00094F84000C0070BD500200190002000902C
:1050B0000023E069C2684FF487710120FCF728FDE6
:1050C000E069D0F88410002902D0D0F8840080472D
:1050D0000020FFF7B2FD13BD2DE9F44F84B08046E8
:1050E0000C009B46DFF8DC030668D6F83801D8F8D8
:1050F0000C1088420ED24FF452703044804509D0D3
:105100004FF44A703044804504D00E20FFF74BFF27
:105110000020D6E00E9D002D1BD0DDF83C90B9F5A7
:105120000D7F04D80220FFF73EFF0020C9E00023D6
:105130002A0002A9484600F00DF907000298B9EBD1
:1051400000095FFA8BFBBBF1000F1ED0B9F12009FB
:105150001BE0D8F80890B9F5AC7F01D84FF4AC79D2
:1051600019F10F005FEA10195FEA09195FFA8BFB6A
:10517000BBF1000F02D019F1200000E048460023E7
:10518000002202A900F0E6F80700002F04D10A204F
:10519000FFF709FF002094E00320B860D7F88C00E7
:1051A000002802D0D7F88CA004E0029807EB000A90
:1051B000C7F88CA05FFA8BFBBBF1000F0DD05046F7
:1051C0001AF1200A98EC080B80EC080B8046D8F8FE
:1051D000000050F00040C8F800004946504600F07A
:1051E00073F8306AD8F80C107FF00F02514308446E
:1051F000F86138628189B984D8F81410B962002D39
:1052000003D0B96A51F02001B962049901918089F3
:10521000009043464A465146380001F01DFA0028E6
:1052200008D1D7F88C00FEF767FF3800FEF764FF5F
:10523000002046E0C7F86880D8F800007866D8F803
:105240001C00002812D0D8F81C00D6F8E4114843FE
:1052500040004FF47A71B0FBF1F04208D7E9290120
:10526000002380185941C7E929010AE017F1A40079
:105270004FF45F713144B1E80C10A0E80C100C3908
:105280000C38D6F87803022803D1B86A50F004002D
:10529000B862D6F8EC027867D6F8F002B867D6F8AC
:1052A000F402F8673C66002D0AD13A00F169D7F89C
:1052B0008C00FFF707F93A00F1693800FFF702F9AF
:1052C000380005B0BDE8F08F8908491C02E07E4A2D
:1052D0000260001D491E0029F9D1704730B583B026
:1052E00004007848056895F84000C0070AD50020FA
:1052F0000190002000900023220040F201110120C3
:10530000FCF706FCE06941686A6A824200D2686282
:105310000222A26061600A6822600C604460002082
:10532000C4F8B0000020C4F8B4000020C4F8B800ED
:1053300095F84000C0070AD5002001900020009099
:105340000023002240F201110220FCF7E1FB37BDEF
:10535000406970472DE9F0410700DC205FF000084C
:10536000584B1D68B5F848314FF6FE74A34201DB77
:10537000002078E0D5F8E463002E08D095F8E833F3
:105380001818984380463018C01C800880000860B8
:10539000002A06D01400002201002000FEF7B8FB0E
:1053A0001FE0FEF7FFFD0400002C04D03800FEF7DC
:1053B00095FDC4F88C00002C01D1200053E0D4F8F6
:1053C0008C00002804D12000FEF796FE00204AE061
:1053D00024212000FFF768F82521D4F88C00FFF77E
:1053E00063F8002E03D004EB0800C4F8D800D5F809
:1053F0004C11D5F85021D5F8F80189B251EA004096
:10540000E060002A03D14FF4A070284401E012F1BB
:105410006C000268E26614F16C030360206714F10B
:105420006C005060B5F84801401CA5F84801200008
:105430000200D06EB0F16C031800491C89B200293B
:1054400000D101214FF4A0762E44B34205D0DB6891
:105450000E009BB2B6B2B342EAD0C5F8502189B271
:10546000C5F84C112000BDE8F081F0B583B0040010
:105470000D001448066896F84000C0070AD50020C1
:1054800001900020009000232A0040F20321012017
:10549000FCF73EFBE76D002D01D0002F00D1E56544
:1054A00096F84000C0070AD5002001900020009027
:1054B00000233A0040F203210220FCF729FB3800C8
:1054C000FEBD0000C804FF1F6B6174732D480068A7
:1054D0004FF4FC7101444A69082A03D307220723C9
:1054E0004B6104E0002A02D1012201234B615101EA
:1054F00011F0E001C182002003E0C021224A1154D2
:10550000401C6A28F9D32149002004E05FF0FF32F3
:1055100041F82020401C0428F8D3704770B5194882
:10552000046800202062D4F83801C61C3001FEF760
:1055300039FD0500002D01D1042021E005212800BE
:10554000FEF7B2FF05E00020A881206AA86025626E
:1055500010353000461E00280FD02D606D60EE81A2
:10556000D4F80C0280190828EDD2D4F80C02801966
:10557000400110F0E000A881E7E7206A60620020A7
:1055800070BD0000C804FF1F00E400E080E100E0FF
:10559000F0B583B004000E001700DFF8EC060568D4
:1055A00095F84000C0070AD5002001900020009027
:1055B00000233200DFF8D4160120FCF7A9FAA66117
:1055C00014F10800A06014F10800E06000202082BF
:1055D00000206082FCF7EDFBFFB2002F2FD1D5F841
:1055E000600100E000684FF4B0712944884216D091
:1055F000A042F7D1FCF7EDFB95F84000C0070BD5B2
:10560000002001900020009000234FF48262DFF818
:105610007C160220FCF77CFA4FF4826024E0D5F877
:10562000640100682060D5F864110C60D5F864113D
:1056300061604460B5F86801401CA5F86801DFF8B6
:1056400050066061FCF7C5FB95F84000C0070AD51D
:10565000002001900020009000230022DFF82C168B
:105660000220FCF755FA0020FEBD80B50023002281
:10567000FFF78EFF02BD7CB50400DFF80C0605685D
:1056800095F84000C0070AD5002001900020009046
:1056900000232200DFF8FC150120FCF739FAFCF7A3
:1056A00088FB6069DFF8E815884212D0FCF791FBAF
:1056B00095F84000C0070AD5002001900020009016
:1056C00000231F22DFF8CC150220FCF721FA1F204F
:1056D00083E00020606155E0A66870683168016071
:1056E0004860208A401E20823C3EB068C00510D52C
:1056F0007068316801604860B5F8D801401EA5F8AF
:10570000D801B06830F48070B060B06850F0030029
:10571000B06095F84000C0070AD500200190002035
:1057200000900023320040F201110120FCF7F0F953
:10573000686AF169884201D2F06968620220B0604B
:10574000F06940687060706800683060706806607A
:10575000F06946600020C6F8B0000020C6F8B4002A
:105760000020C6F8B80095F84000C0070AD5002010
:105770000190002000900023002240F2011102203D
:10578000FCF7C6F9208A0028A6D1D5F8600100E010
:1057900000684FF4B071294488420AD0A042F7D182
:1057A0006068216801604860B5F86801401EA5F88E
:1057B0006801FCF70EFB21F04FFA95F84000C00796
:1057C0000AD5002001900020009000230022DFF87D
:1057D000C4140220FCF79CF9002076BD80B500219E
:1057E000FFF749FF02BD7CB50500DFF89C040468A3
:1057F00094F84000C0070AD50020019000200090D6
:1058000000232A00DFF890140120FCF781F9686971
:10581000DFF87C14884210D094F84000C0070AD505
:10582000002001900020009000231F22DFF8681460
:105830000220FCF76DF91F2097E0E069406D002819
:1058400002D1E08A80F31188E069406D401CE16973
:105850004865A86900285DD4288A00285AD0AE6817
:105860007068316801604860288A401E28823C3E8A
:10587000B068C00510D57068316801604860B4F840
:10588000D801401EA4F8D801B06830F48070B06030
:10589000B06850F00300B0600020B06394F840009E
:1058A000C0070AD50020019000200090002332009C
:1058B00040F201110120FCF72BF9606AF16988427E
:1058C00001D2F06960620220B060F06940687060E7
:1058D00070680068306070680660F069466000209B
:1058E000C6F8B0000020C6F8B4000020C6F8B80022
:1058F00094F84000C0070AD50020019000200090D5
:105900000023002240F201110220FCF701F921F0EE
:10591000A3F902E0A869401CA861E069406D002875
:1059200013D0E069406D401EE1694865E069406D53
:1059300000280AD1208B002804D0606B806880F397
:10594000118802E0608B80F3118894F84000C00752
:105950000AD5002001900020009000230022DFF8EB
:1059600038130220FCF7D4F8002076BD30B583B0A0
:105970000400DFF81403056895F84000C0070AD555
:10598000002001900020009000232200DFF80C137B
:105990000120FCF7BDF8288B002810D095F84000B6
:1059A000C0070AD5002001900020009000230D229E
:1059B000DFF8E8120220FCF7ABF80D2083E0606905
:1059C000DFF8CC12884210D095F84000C0070AD505
:1059D000002001900020009000231F22DFF8BC125D
:1059E0000220FCF795F81F206DE0E869406D002863
:1059F00002D1E88A80F31188E869406D401CE969AA
:105A00004865A06901281BDAE86940F22B418160F2
:105A100014F108018163416802680A605160E1681D
:105A20000968C16310F13C02E3681A60E26802642D
:105A30003C304860208A401C208221F01BF902E0A3
:105A4000A069401EA0616069DFF84412884212D04C
:105A5000FCF7BFF995F84000C0070AD50020019077
:105A60000020009000231F22DFF830120220FCF7F4
:105A70004FF81F2027E0E869406D002813D0E8693F
:105A8000406D401EE9694865E869406D00280AD10B
:105A9000288B002804D0686B806880F3118802E0AE
:105AA000688B80F3118895F84000C0070AD5002064
:105AB00001900020009000230022DFF8E011022076
:105AC000FCF726F800203EBD10B50C0040F22B413B
:105AD000A16010F10801A163616822680A60516049
:105AE000C1680968E16314F13C02C3681A60C268C6
:105AF000226414F13C024A60018A491C01822000A0
:105B0000FCF783FBA06B002801D0372000E00020C9
:105B100010BD2DE97C4305000C005B48066896F833
:105B20004000C00709D5002001900020009023000C
:105B30002A005B490120FBF7EBFF308B00280FD0D8
:105B400096F84000C00709D5002001900020009081
:105B500000230D2252490220FBF7DAFF0D2091E0CD
:105B600068694B4988420FD096F84000C00709D5B4
:105B7000002001900020009000231F2248490220AD
:105B8000FBF7C6FF1F207DE0F069406D002802D1C1
:105B9000F08A80F31188F069406D401CF169486516
:105BA000A86901282DDAF169002C1BD140F22B40A5
:105BB000886015F10800886348680A6802605060D0
:105BC000E8680068C86311F13C02EB681A60EA6893
:105BD0000A643C314160288A401C288221F04AF83E
:105BE000002412E0D6E96E892200002318EB02029D
:105BF00059EB0303C1E911232800FFF765FF0400F7
:105C000003E0A869401EA861002468692049884211
:105C100011D0FCF7DEF896F84000C00709D5002047
:105C200001900020009000231F221D490220FBF755
:105C30006FFF1F2026E0F069406D002813D0F06947
:105C4000406D401EF1694865F069406D00280AD139
:105C5000308B002804D0706B806880F3118802E0DC
:105C6000708B80F3118896F84000C00709D500209A
:105C70000190002000900023220009490220FBF738
:105C800047FF2000BDE87683C804FF1F0F00020015
:105C90006D73776C12000200110002001000020008
:105CA0001600020010B542F26700FBF729FE0FF262
:105CB0002D10FBF729FE5FF000510020FEF73CF9A4
:105CC000FA21002000F020FD0400002C01D020006B
:105CD00067E04A48FDF70AFF49484A4988420AD224
:105CE00048484749484A5118884204D2FEF754F9B7
:105CF0004649086009E04248434908184449411AA6
:105D00004348FEF7E5F94149086002230022414972
:105D1000414800F003FD0400002C01D0200040E0C9
:105D2000C82200213C4800F050FD0400002C04D0A3
:105D3000394800F019FD200033E000220FF2A101E4
:105D4000354800F093FD0400002C04D0324800F0E8
:105D50000BFD200025E0304800F05CFD0400002C25
:105D600004D02D4800F000FD20001AE02A202B4925
:105D70000870012000F036FE294800682949C0F863
:105D8000E811C820FCF709FF234800F055FDFCF797
:105D900010FF00210FF25100FCF704FF00F05AFE43
:105DA000002010BD80B500F05FFE002815D11E4810
:105DB0001E4908601E4802681D491E4800F07AFE10
:105DC0001D4802681C491D4800F074FE1C491D480E
:105DD00001F0DEFA01F08CFE002002BD70470000E9
:105DE00080B5FCF721FD01BD00B585B069460A48C4
:105DF00000F028FD029805B000BD00000000FF1F64
:105E00000000FF1FE0580020000002006047002053
:105E10000000FF1F3CC10200D009FF1F00E0074047
:105E2000C804FF1FA0BB0D0000A00FAA202008E09F
:105E300078C1020054C1020098C102005CC1020096
:105E40006CC1020064C102002DE9F04385B00C0072
:105E500015001E005349D1F80080D8F8701201EBEC
:105E60008000476808685049884201D0192057E0EF
