:10000000004000201DED010053570000B35A0000CE
:1000100000000000000000000000000000000000E0
:1000200000000000000000000000000091DF000060
:10003000000000000000000037DF000019DF0000B2
:10004000B5ED0100B5ED0100B5ED0100B5ED010024
:10005000B5ED0100B5ED0100B5ED0100B5ED010014
:10006000B5ED0100B5ED0100B5ED0100B5ED010004
:10007000B5ED0100B5ED0100B5ED0100B5ED0100F4
:10008000B5ED0100B5ED0100B5ED0100B5ED0100E4
:10009000B5ED0100B5ED0100B5ED0100B5ED0100D4
:1000A000B5ED0100B5ED0100B5ED0100B5ED0100C4
:1000B000B5ED0100B5ED0100B5ED0100B5ED0100B4
:10040000FFFFFFFFFFFFFFFFFFFFFFFFFEFFFFFFFD
:10041000017170474C30017070474E300170704769
:100420004D3001707047F8B5002822D1A24CC0228F
:1004300000212000203002F068FA25002235002635
:100440002E70AE7027006C373E702000203001F017
:1004500054F92034200003F053FB9848E881BE771C
:100460009748807AC006C00E00D00120A8770120EE
:10047000F2BD0020F2BD70B505000C00B44E30781E
:1004800000280AD1FFF7CFFF3470002000F0D0FC25
:10049000B08000202870012070BD002070BD80B5A4
:1004A00085498A7B002A01D0521E8A73FFF7BBFF61
:1004B00002BD0100C80605D17F48028D8A4201D1E4
:1004C000203070470020704770B505002888FFF77E
:1004D000F0FF040003D002F06EF9002801D10220E1
:1004E00070BD2079092817D026004E36A878B07242
:1004F000200002F02FFC05003078012801D0708A1E
:1005000000E0B0880A2242430121200003F0CAFD26
:10051000002D01D109202071002070BD80B508E0B8
:1005200080B50279002A01D1002102E0092A00D118
:1005300022215822815400F08BF901BD002800D0FF
:100540007047F8B55C4C2000203002F034F90028E8
:100550004DD025002235A878032802D0052802D0E6
:100560000CE0042000E00620A870002120342000C8
:1005700000F05DFA002001F095FDF1BD27006E3717
:10058000798A287803F0D9FF387801282FD1002103
:100590002000203002F01DFA2000B43000900068E6
:1005A0000026002812D04288002A0BD002886A82D6
:1005B0004288AA828288EA82C2882A8302896A8360
:1005C0004189A98304F0B9FC009806603E702000C0
:1005D000203002F037F8A878072803D12000203017
:1005E00001F0B8FD02212034200001F028FDF1BD0A
:1005F000002800D0704780B56A460021052004F02D
:10060000AFFC684601888F4800F0C7FA01BD70B59D
:1006100006000D000C2004F0BCFD040012D00C22DA
:10062000002102F072F90F20208125606660002011
:1006300060812100844804F05BFE0121834800684A
:1006400004F081FF70BD38B505000C2004F0A1FD59
:10065000040012D00C22002102F057F90A20208158
:1006600025600020606060812100774804F040FE32
:1006700001217648006804F066FF31BD002800D0F3
:10068000704710B50C4C6D20205C02280DD1002065
:100690006D2160542000203003F09DFA002804D121
:1006A00002212000203001F0CAFC2034200001F09B
:1006B000C9FF03F010FB10BD78300020B80B00001C
:1006C0007006002080B54905490F012907D011D3D4
:1006D00003290CD007D305290AD008D301BD3E2138
:1006E000FFF71CFF01BD0821FFF71AFF01BD22E73C
:1006F00000F007F901BD002800D07047F8B5C54CDF
:1007000025006E352878012820D127002237A98AB4
:10071000387803F008FF2000203003F05CFA01284D
:1007200014D004F0D9FFEA89F97800F0A9FF060097
:1007300004F0D6F8B8480078311889B22034200087
:1007400005F010F8A98A387803F0EDFEF1BD00003D
:100750009C30002010B504F0F3F80400AC2005F044
:100760004DF9010B02D02000FFF751FF10BDF8B585
:1007700005000426A94FA74C04F075FA7620205AEC
:10078000009000207621605204F074FA200020309E
:1007900002F011F8012853D1009880070BD5387862
:1007A000304338709E480168080001D00120884716
:1007B0000020FFF7C3FE0098C0060BD50020FFF70E
:1007C00017FF97480168080004D03878002800D047
:1007D000012088470098800602D50020FFF733FFEC
:1007E0000098400601D5FFF7B5FF0098000602D536
:1007F0000020FFF780FF0098304202D00020FFF772
:100800003DFF280402D5002001F070FC680402D5E9
:10081000002001F078FC0098C00711D53878FB2142
:10082000014039707E480268100003D0080000D0F3
:1008300001209047009989B220342000FFF742FF41
:10084000F1BD000098300020A0360020983600202E
:10085000F0B583B00400A71C6846F9880180002524
:10086000FD8026005836B878022819D902E0019890
:1008700004F047FB200003F03BF9002807D100AA51
:10088000921C01A9200003F015F90028EFD02000E8
:1008900003F01DFCB17B6846008805F0BBF9B57319
:1008A000F06B002802D004F048FBF563306C0028A0
:1008B00002D004F042FB35643178002903D0684649
:1008C000008800F0E5F80021387804F090FA200064
:1008D00001F0D3FB387803F0CAFF3878FFF7DFFD6B
:1008E0000B2003F074F901F0A5FEF7BD10B504006C
:1008F000FF2103F0E2FB09202071A07803F078FECD
:1009000010BD10B50400A079002809D0222058217C
:100910006054FF21200003F0D0FB2000FFF798FF78
:1009200010BDF2B582B0002100910088FFF7C1FD33
:10093000040003D001F03FFF002801D10220FEBDDA
:10094000E0794026304241D127000837797F0622DE
:100950000A40022A02D10643E67137E00225480721
:1009600016D504F077FE04000020207038886080DF
:10097000B888A080387F6070F888E08002980570A1
:100980002178814805F0C7FA200005F05DF91DE0E7
:10099000200001F0FCFE012801D12A20FEBD68469E
:1009A00004F0A3FA002801D00720FEBD0099E079E9
:1009B0000643E671200002F05EFB787F05437D77F9
:1009C0007248428A0421200003F06CFB0020FEBD27
:1009D00070B50C0000281BD10E4D2E008636280065
:1009E000203000F050FA012807D10021B07803F040
:1009F000E8FA002801D102F01CF93078001B3070B1
:100A00002800203001F002FB2100288D05F002F9BA
:100A100070BD000078300020A90600209A3900201F
:100A20007039002080B5011D05F040FC01BDF8B50E
:100A300004000F0004F00EFE05002F7001262000B8
:100A400003F0C9F801214140697028000C3004F01E
:100A50007AF8002C10D0208968804F20205C287103
:100A6000002F11D1607968715C342088E88060883B
:100A70002881A088688107E0182004F0BFFF000AE1
:100A800006402E7100206880280005F05CF8F1BD5A
:100A900080B50A000100002005F0FBF801BD0078D8
:100AA000704710B504000800210002F0E9FF00289B
:100AB00002D0200004F025FA10BDF7B506000C00A6
:100AC000A01C8078092804D1300004F01AFA022012
:100AD000FEBDA078F077200000F0D5F901280BD1F9
:100AE000A0780100C84AC023584310188830007805
:100AF00003F067FA012804D0A07800F078FA012802
:100B000007D16846027A21003000FFF7CAFF0D20A6
:100B1000FEBD3078694608710125684600790628CF
:100B20000AD00B280AD1200003F055F8012805D17E
:100B300000204821605401E048216554200000F065
:100B400044FA070002AA2100300000F02AFE6B20C0
:100B500025546846007A00903300684602793900CF
:100B6000A07803F083FD03236846027A3900A07859
:100B700003F05FFD3900A07803F0B7F9300004F00E
:100B8000C0F90020FEBD00001D040000700600201A
:100B9000002800D1022070477047002900D0418111
:100BA0007047F0B585B00300080069469C07A40FA4
:100BB0000C73D904C90E6B461980002A5BD103F06F
:100BC00071FD69464880904C6846008800280CD129
:100BD0006846408804F012FF010020342000FFF72F
:100BE000DCFF002003F091FE45E0260069363D253C
:100BF00000276846007B401E01283FD9801E00D098
:100C000086E0029702A804F07EF9002807D0307829
:100C1000012830D12034200000F0B7FD2BE00298ED
:100C2000019068460388019A0021408804F0ECFE98
:100C30006846408804F0E2FE010020002030FFF703
:100C4000ACFF002003F061FE6A46210020310198CC
:100C500000F039FE0028019807D004F060F9F57320
:100C600020342000FFF742FE05E0C77701992034C9
:100C7000200002F029F8012005B0F0BD0297208D78
:100C8000019002A804F023F9002801D00020F3E726
:100C9000029F684603883A1D0021408804F0B4FE94
:100CA0006846408804F0AAFE010020002030FFF7CB
:100CB00074FF002003F029FEF07E002803D03800E6
:100CC00004F011F9CBE76846037B6A462100203126
:100CD000380000F03BFE002803D0380004F003F990
:100CE000BDE76846007BFFF757FF0199397001990E
:100CF0000904090E00010843787068460088B8703E
:100D000068460088000AF8703800FFF78BFEB2E7EB
:100D10003078012803D12034200000F036FD60E750
:100D2000F8B500270025B74EF079002820D1AC2077
:100D300004F064FE000B04E0AC2004F05FFE000B46
:100D40006D1C002814D0E8B203F0ACFC04F056FE91
:100D500004000022E9B2FFF724FF0128ECD02A4862
:100D600084838777C5770121F171203001F04EF936
:100D7000F1BDF0B502000020002401230AE01500B7
:100D8000E5401D40661C1700F7401F40BD4200D0E3
:100D9000401C641C4D1EAC42F1D3C0B2F0BD10B576
:100DA0000400A04860402DD00022012393409842C7
:100DB0001ED0521C202AF8D300227F202100D140CF
:100DC0007F230B407F2B13D0014011D0521C192AD6
:100DD000F4D3A0B20100220C914203D1000AC9B29F
:100DE000814205D01F212000FFF7C3FF192801D33E
:100DF000002010BD0621A00EFFF7BBFF0228804196
:100E0000C043C00F10BD00007830002010B50400B2
:100E1000F0200001844209DA2000FFF74AFB002895
:100E200004D00089844201D1012010BD002010BDF2
:100E30008C498A79521C9206920E8A71382111408F
:100E4000890101435007000E0843704710B56D4CEF
:100E5000E079002816D003F0D5F88248827FC17F60
:100E6000808BFFF79EFE01280CD10020E07103F07B
:100E700067FD0400AC2004F0C1FD010B02D020008E
:100E8000FFF7C5FB10BD6A300078002800D00120B4
:100E9000704770B505006A20285C00282DD1AC1C75
:100EA000FF20E0776F482178C022514341188931F3
:100EB0000A78521C0A702178C022514341188931A6
:100EC0000A78052A01DB00220A702178C0225143EA
:100ED00040188830467806702178300003F071F8A9
:100EE000002807D102206A3528703100207803F0ED
:100EF000C7FE70BD01206A35287070BD38B504008A
:100F00006A20205C012812D1A1785648C0224A43A9
:100F1000801888300578280003F053F8002806D19F
:100F200002206A2160542900A07803F0A9FE31BD97
:100F3000F8B505006A20285C002845D0A878009004
:100F400048480099C02251434618883600993078A5
:100F500003F04BF8012803D103206A352870F1BD56
:100F60003478641CE4B2052C00DB002400206A21E4
:100F70006854FF2777703770B07000220021009806
:100F8000C0B203F091FEA81CC17FFF2904D0280045
:100F900002F085F9A81CC77701F04BFE052600205A
:100FA000009022006946280001F03DFC00980028CE
:100FB00003D00146280002F04BFF641CE4B2052C6C
:100FC00000DB0024761EEAD1F1BD10B50400FFF766
:100FD0005AFF012807D12348A178C0225143401865
:100FE0008830007810BDA07802F070FF10BD002896
:100FF00001D06B2000E0A4480078012800D0002038
:1010000070470000D838002000E000BF0100002039
:10101000490704D59D490978022900D1012070476C
:1010200000000000D6BE898E10B50400E0060BD586
:1010300096480078022802D1002000F0D5F89448A4
:101040000068010000D08047A00709D591480168D9
:10105000080005D090480078002800D0012088477B
:1010600010BD000078300020FEB506000020694663
:101070004872022001F0A6FB002801D00C20FEBD22
:10108000022102A8FFF7F7F9012854D16846007A37
:10109000002850D1814C25006C3528706870A870EC
:1010A000062002F094FD200022300090F089009983
:1010B0004882B08900998882308A0099C882708AF3
:1010C00000990883F08A00994883B08A0099888340
:1010D0002000203002F084FA070002AB5B1C0122E2
:1010E00039002000203001F0FEF8388A6882B88C80
:1010F0002882788AA882F88CE882A86C03F01DFF09
:101100000020A864288A02F0FCFF6873288A02F095
:10111000FAFFE881A01C019007780622B11D20008B
:10112000E03001F08BFB3079012806D10020E87017
:101130000420384308E00920FEBD7079E870B01D36
:1011400003F0BCFCFB2038400199087001984078FE
:10115000317E012902D10421014301E0FB2101403C
:101160000198417000980178300003F0A9F920340B
:10117000200000F001F8FEBD10B50400A07804F0D6
:101180000FFB200000F03EF9002010BD70B50E00EE
:101190000C24022001F016FB05000020002D10D0C9
:1011A00000242A890021954805F03BF902212800F6
:1011B000FFF73DFCA87803F009FA2800FFF748FB89
:1011C00002203070200070BD10B5002033498C4AD9
:1011D000FF2313540C182374401C0428F9DB1F232D
:1011E00013540818037410BDF8B5C74C0026002826
:1011F00001D0002501E0250020352979022904D0FD
:1012000000291AD003F0F4F9F1BD2F004C37012169
:10121000F97603F041FB03202871082002F0D7FC87
:101220003E700121280000F00AFF01214F352800FF
:1012300003F0A0FCA07B401CA073F1BD38B5008872
:10124000FFF737F9040003D001F0B5FA002801D107
:10125000022032BDE0798025284209D1C10609D596
:101260000543E571BB48428A0221200002F01AFFC3
:10127000002032BD200001F0C3F8002802D1E1793E
:101280000D43E57132BD0000033100209C30002089
:1012900074390020703900209A39002078300020FD
:1012A0004D300078401E012801D8012070470020F1
:1012B000704738B5040000200090200002F08BFC3D
:1012C000012827D1200001F076FA002822D001253C
:1012D0002079C01E012804D9001F02D0801E19D019
:1012E00004E0200001F053FA012804D14D20205CD5
:1012F00000280FD104E0684603F0F7FD002802D073
:101300004D34257031BD0099200001F090FD022080
:101310004D34207031BDF1B582B00088FFF7C9F8B7
:10132000040006D001F047FA002802D020790928ED
:1013300001D10220FEBD02278648807A38406946E6
:101340000871200002F047FC06000025201DC0782F
:1013500020210143201DC170200002F041F90090BE
:10136000002801D10720FEBD029901F03BF94E2073
:10137000205C002804D0032823D005282ED03AE092
:10138000200001F004FA012804D0200001F00BFA3B
:10139000012805D16846007906431CD1112504E0D7
:1013A000200001F087F9050009D0201DC078DF2159
:1013B0000140201DC1702900200001F0EEFA280034
:1013C000FEBD012E17D123220F21200002F0E8FAE2
:1013D000009801F0F9F84E342770F0E723220F212E
:1013E000200002F0DDFA009801F0EEF80421200060
:1013F00001F091F8D7E72325D7E700000E20000081
:10140000D8380020F8B5050004F024F9040004F0F1
:1014100053F9060004F056F9070004F066F969462E
:10142000487004F059F9694608703804390C0843CB
:101430002070010A6170010CA170000EE07059204B
:10144000285C20716671300AA071300CE0712F00A9
:101450005A37388820723888000A60727888A072FB
:101460007888000AE072B8882073B888000A607330
:10147000F888A073F888000AE073234E0522310033
:1014800010312000103001F0D9F90020E87010363A
:101490003100A87803F06EF9002068716846007882
:1014A000400169464978084300216175A075000A2A
:1014B000E07504E02888798849004018288003F006
:1014C0001BFC0422298803F01AF90128F2D029888C
:1014D0008020800004F095FA1821200003F0BAFB68
:1014E000F888C000798804F0DDFF81B28220800096
:1014F00004F087FAA87803F042F83989A87803F055
:1015000012F803F04FF8F1BD7830002070B50024D8
:101510000022574DA95C002001E04908401C002929
:1015200005D0CE0700D5641CE4B2022CF5DB022CFA
:1015300003DA521CD2B2052AECDB022C09DA4D493F
:101540008A18D37B0121C0B2082800DA81401943F0
:10155000D17370BD70060020F8B5050046480178CB
:1015600004220A430270012001F02CF9040003D187
:10157000280003F03DF8F1BDA71C0320B870260039
:101580004C360025F5767D70200000F020F802F042
:1015900022FF092002F01BFB387803F092F90121A9
:1015A000200000F04CFD35707570B570314CA07B9B
:1015B000401CA073022001F005F9050006D0E034BC
:1015C000200003F07BFA2800FFF7D6FDF1BDF8B547
:1015D0000400A71C401D00902300603322005E32EF
:1015E00021005C31387803F0ADFB26005A36F088D4
:1015F0008000718804F056FF411EB28888B2904284
:1016000004D2B08089B2387802F0AFFF0021200008
:101610004F3003F0AFFA802004F0F0F9308004F08E
:101620005BF83288921C92B2F97800F029F803F046
:1016300060F904F051F87288F97800F021F805009B
:1016400003F04EF97188B088414389B2387803F0CD
:10165000AEFB0A480078291889B2200004F082F80D
:101660003189387802F05FFF387802F08FFFF1BDE2
:10167000D8380020783000209A390020A9060020B0
:1016800010B5072308A418404000205A0B40590009
:10169000615A40185043C008642104F006FF002836
:1016A00000D1012080B210BDF401FA009600640060
:1016B0004B0032001E00140038B504000D0002F08B
:1016C0008AFA012806D100222421200001F0EAFC38
:1016D000242032BDE87A0102A87A0143A07803F001
:1016E00025F8012807D12820582160542000FFF751
:1016F000FDF8282032BD002032BD01002830002234
:1017000042600B0026331A7002605A7048310A702A
:101710004A70704730B585B004002500983508221E
:1017200029681831684601F089F8082229682031B3
:101730006846083001F082F81021684603F0FFFB8C
:1017400010212868083003F0FAFB303422002968A1
:101750000831684604F007FF05B030BD10B504003D
:10176000FFF7CBFF200000F05AFF00204C34207020
:1017700010BD816A491C816206D12721415C491C48
:101780004906490E273001707047C16A491CC16281
:1017900006D12621415C491C4906490E26300170BC
:1017A0007047F4B58CB007000C004820205C00287E
:1017B00039D01678002E01D11F2034E000252000FA
:1017C00002F009FA012800D10125032069460877B3
:1017D00008A80190200044300090230040332A00E4
:1017E0002720215CA06A03F099FF002006900420C6
:1017F0000590B819049003972000303002900D2016
:10180000019008A80090012307AA3100380005F0D4
:1018100079F8050001D1361DF6B20C98067020004B
:10182000FFF7A7FF28000DB0F0BDFCB58BB0060098
:101830000D004820285C002804D02800FFF723FB77
:10184000012801D100203CE00B980488002C01D134
:10185000022036E00027280002F0BDF9012800D15F
:10186000012707A801902800443000902B00403346
:101870003A002720295CA86A03F050FF0020069058
:10188000042005903019001D0490301D039028009D
:10189000303002900D20019007A8009001230CAA7F
:1018A0002100301D05F02EF8070001D1241DA4B23F
:1018B0000B990C80B470200AF0702800FFF759FFD4
:1018C00038000DB0F0BDF4B58CB007000C0020005E
:1018D0002C30407F002837D016780025200002F0F9
:1018E0007AF9012800D0012503206946087708A865
:1018F0000190200044300090230040332A0026202D
:10190000215CE06A03F00AFF0120069004200590A4
:10191000B819001F049003972000303002900D206A
:10192000019008A80090012307AA311F89B238004E
:1019300004F0E8FF050001D1361FF6B20C980670DE
:101940002000FFF722FF28000DB0F0BDFCB58BB0E2
:1019500006000C001788FFB220002C30407F0028C2
:1019600036D00025200002F036F9012800D00125EC
:1019700007A80190200044300090230040332A0043
:101980002620215CE06A03F0C9FE012006900420B5
:101990000590F0190490301D039020003030029023
:1019A0000D20019007A8009001230CAA391F89B2CD
:1019B000301D04F0A7FF050007D1381FC0B20B99F6
:1019C00008802000FFF7E1FE01E00B980780280067
:1019D0000DB0F0BD38B50400082102F06EFB1021F7
:1019E000200002F06AFB251D2878401F012802D93B
:1019F000C01E0ED031BD01220021A88804F091F94B
:101A000007202870200002F0E6F8012805D1052003
:101A100004E0A98804F0A2F9F2E70E2021004C317D
:101A2000087000250D762000FFF782FA200000F0F4
:101A3000F6FD200000F08EFB2000BC30017801296B
:101A400005D1057021009C31200001F02DF9200006
:101A500000F0F8FD31BDFEB504000F00082102F0D2
:101A60002CFB1021200002F028FB00250420217906
:101A7000082902D0092904D004E06946087001262B
:101A800003E009206946087000262000FFF735FEB4
:101A90004C216554684600782071200000F0BFFD9D
:101AA00068460079002E20D1012805D10022390096
:101AB000201D808804F035F921004C310D766846F0
:101AC000007A01281BD02000FFF732FA2000BC303A
:101AD0000178012905D1057021009C31200001F019
:101AE000E3F8200000F0AEFDF7BD012804D1201D71
:101AF0008188380004F032F920004C30057620004F
:101B00004C300773200001F025F90500B948428ADE
:101B10000121200002F0C6FA002DE5D10920207134
:101B2000F7BD10B5040002F056F8012809D10821CC
:101B3000200002F0C2FA002301221A212000FFF740
:101B40008AFF10BD38B504000D0002F044F80128EA
:101B500009D10821200002F0B0FA00230122290057
:101B60002000FFF778FF31BD38B504002079032845
:101B700004D004280BD007280BD006E0052501214E
:101B8000200000F063F8002809D00D2032BD0625A2
:101B9000F5E70825200000F0B1F80028F5D1200075
:101BA00000F034FA2571002032BDF8B50500002799
:101BB0002888FEF77EFC040018D002F00CF80028FC
:101BC00001D10C20F2BD8B48807AC00701D41120CE
:101BD000F2BD200000F0EFFD002807D02079C01EE4
:101BE000012805D9001F03D0801E05D10220F2BDB7
:101BF0004C20205C012801D10D20F2BD200000F016
:101C0000FEFC060001D10720F2BD0822291D00F0CC
:101C100015FE30002830698801706988090A417012
:101C200010220C3529000836300000F007FE200095
:101C30004C308078002803D001204C34207003E021
:101C40002000FFF791FF07003800F2BDF8B504004F
:101C50000D0000200090684603F047F9002801D0ED
:101C60000D20F2BD009E2000403004F084FF2700CC
:101C70004C37F86C183004F07EFFF86C1C3004F020
:101C80007AFF012D02D12000FFF703F93100200077
:101C900001F08CFB5748428A0821200002F002FA2A
:101CA000022038700020F2BD10B50400FFF732FDAD
:101CB00003204C216054200000F0A8F910BD10B59D
:101CC00082B0040000200090684603F00EF900285E
:101CD0000FD10099200001F017FB4648428A0821E5
:101CE000200002F0DFF904204C216054200000F0B5
:101CF0008DF913BD80B5FFF76DFE01BD38B5040049
:101D000000200090684603F0F0F8002801D00D2074
:101D100032BD009D2000FFF7BCF82900200001F033
:101D200091FB3448428A0821200002F0BBF90620CA
:101D30004C342070002032BD38B5040000200090E3
:101D4000684603F0D2F8002810D1009D2000FFF76C
:101D5000D4FC2900200001F0DCFA8948428A0821DD
:101D6000200002F09FF907204C34207031BD80B56F
:101D70000021FFF76BFF01BDF8B504000D00002046
:101D80000090684603F0B1F8002801D00D20F2BDA4
:101D9000009E27004C37F86C203004F0ECFEF86C05
:101DA000243004F0E8FE2000443004F0E4FE002D6E
:101DB00002D12000FFF76DF83100200001F052FB46
:101DC0000C48428A0821200002F06CF9200000F043
:101DD000ADF8002807D0200000F022F8002807D036
:101DE0000920387004E008203870200000F00EF957
:101DF0000020F2BD7006002080B54C21415C08290E
:101E000004D00CD30A2908D004D301BD0B214C30D7
:101E1000017001BD00F004F801BD00F095F801BDAE
:101E200070B5040026004C362079401F012802D9E5
:101E3000C01E0ED020E003220621200001F032F95E
:101E40004F48428A0821200002F02CF911203070FE
:101E500010E006203073200000F07CFF0500B08AFF
:101E60000A2242430121200002F01CF9002D01D179
:101E700009202071002070BD0C2070BD10B5040039
:101E800001F0A9FE012809D04C20205C112805D1C1
:101E90000023002206212000FFF7DDFD10BD10B554
:101EA00082B0040000200090684603F01EF800286D
:101EB0000CD10099200001F027FA3148428A08210C
:101EC000200002F0EFF80D204C34207013BD80B5D7
:101ED000FFF780FD01BD70B582B0040000250095BC
:101EE000684603F002F8002801D00D2076BD009E60
:101EF000200000F084FB082020712000FEF7C9FFBD
:101F00003100200001F005FA2000493005700F2152
:101F1000C170200000F07AF8002076BD10B50400F2
:101F2000FFF7EBFB10204C34207010BD10B50400FF
:101F300003F090FB218901809834216841602831A9
:101F4000816003F0BEFE10BD10B582B00400002019
:101F50000090684602F0C9FF002801D00D2016BD90
:101F60000099200001F093FA0548428A08212000D8
:101F700002F098F80C204C342070002016BD0000B0
:101F80007006002070B505002888FEF792FA04005C
:101F900001D1022070BD26004C363078082801D0CF
:101FA0000B2817D11022A91CF06C083000F046FC59
:101FB0002000FFF7AFFB3078082804D02000FFF79F
:101FC000C3FF002801D00A203070200000F01EF866
:101FD000002070BD0C2070BD10B50088FEF769FAB6
:101FE000040001D1022010BD4C20205C082801D043
:101FF0000B2809D12000FFF713FF002802D0092089
:102000004C342070002010BD0C2010BD20B50021E4
:10201000020066321579002D03D11278002A00D013
:102020000121844AD279002A00D00021801C8278C4
:10203000092A00D10121007802F06DFC20BD38B5DD
:1020400005000C0001F0C7FD00280CD1022C10DBAC
:1020500028004D304178002905D10078022802D0AF
:102060002879092801D1012403E0280000F00FF8A5
:102070000400200002F087FE31BD80B503F02CFB88
:1020800002220021FFF7FCFA02F033FC01BD80B50B
:10209000807804F02CFE002800D00120C0B202BDE0
:1020A0007047704710B582B000240094002800D11A
:1020B000614C684602F019FF002816D100992000F3
:1020C00000F0D9FF2520205C022101432520215466
:1020D000C948428A0421200001F0E4FF200000F0FA
:1020E0008FF902212000FFF7AAFF13BD002800D0BE
:1020F000704780B5C1482421415C072902D12030B6
:1021000000F00AF801BD002800D0704780B5BB4838
:10211000008D03F081FE01BD10B582B004000020E7
:102120000090A079002814D14C20205C052801D013
:102130000E280ED1684602F0D8FE002809D1009979
:10214000200001F01AFAAC48428A1021200001F068
:10215000A9FF13BD0200801CC189002900D170476E
:1021600010B5A54B9B7ADB0613D55C3253885B1CFC
:10217000128853439BB25C03240C00D10124DA0380
:10218000120C01E0121B92B28A42FBDA007802F0D4
:102190004DFE10BD38B50D00002129700088FEF7F6
:1021A00088F9040003D000F006FB002801D10220CA
:1021B00032BD9148807AC00601D4112032BD022080
:1021C0002870228A0021208903F0E2FD002032BD20
:1021D00070B504000E002088FEF76BF9050003D0EF
:1021E00000F0E9FA002801D1022070BD8248807A0F
:1021F000C00601D4112070BD618828005C3042887F
:10220000521C008842431004C00C814201D21220AB
:1022100070BD2C1DA1812078072802D12800FFF76E
:1022200099FF022030700021A08803F0D5FD002026
:1022300070BD0000D83800209830002038B5050067
:10224000002008702888FEF734F9040001D102202C
:1022500032BD4E20205C052801D0072817D1200070
:1022600001F0BEF969884180A9880180E9888180F0
:102270002989C18069894181A9890181200001F0F2
:10228000AAFC002805D1200000F069F904E00C2028
:1022900032BD200000F0F3F8002803D00100200038
:1022A00000F07BFB002032BD70B5040000200870F8
:1022B0002088FEF7FEF8050001D1022070BD4E20F7
:1022C000285C052801D007280BD1A2780F2128000F
:1022D00001F066FB0600A178280000F05EFB3000EC
:1022E00070BD0C2070BDF4B584B005000C00D44E58
:1022F000608D002807D120866086A686E686268720
:102300006687A687E6876188A81C00290AD06A46E6
:10231000D1802788A188918061899181218951810B
:10232000E1881FE0818A00290AD06A46D180478A65
:10233000C18A9180818B9181418B5181018B11E008
:10234000290054310F896946CF80290054314989C9
:102350006A46918029005431C989918151812900AF
:1023600054318989118100780090684683883A0049
:10237000C188208E03F0F8FAA082218D0091638D30
:10238000020039006846C08803F05EFAA081000CA4
:10239000E0816846027CA189E08903F078FA0300B5
:1023A000A384684642898189007C03F07AFAE0843C
:1023B0006846808803F092FA20826846008903F01C
:1023C0008EFA6082280000F0F6F9012811D1280069
:1023D00003F086FAE082A18E0091638E54352A883C
:1023E000A18C03F08AFA20836683A683E683268481
:1023F000668405B0F0BD0000700600207830002033
:1024000070B582B0040000200090C24D200001F0A1
:10241000E2FB00280FD10821A87A084201D111203F
:1024200076BD2000203042790A4204D0007808426C
:1024300001D11A2076BD200000F0A9F9012801D1B0
:102440002A2076BD684602F050FD002801D0072002
:1024500076BD009E200001F0BEFB002804D13100B3
:10246000200001F02DFA03E03100200000F00AFD09
:102470006A8A0221200001F015FE002076BDF0B529
:1024800083B00500002001906946087094202E5802
:1024900001A802F02AFD002801D00720FEBD019FFF
:1024A0002021280001F009FE2C004E34608AA08013
:1024B000208A6080E089E0806B460122310028009C
:1024C000FFF711FFB08CE189884207D1308A218A59
:1024D000884203D1708A618A884203D0E87920213A
:1024E0000143E971708A6082308A2082B08CE08179
:1024F000F08CA082E08901F006FEA081E08901F065
:1025000000FEE0723900280000F049FC0120207034
:1025100068460078FEBDF0B583B004000D000020D1
:10252000009094202758684602F0DFFC002801D074
:102530000720FEBD009E01AB012239002000FFF7FD
:10254000D2FE3100200001F09FF87248428A20211B
:10255000200001F0A7FD4E3425700020FEBD30B5EF
:1025600083B0040000200090684602F0BEFC002802
:1025700001D007203EBD009D01AB012294202158CF
:102580002000FFF7B0FE2900200001F058F9614853
:10259000428A2021200001F085FD08204E34207061
:1025A00000203EBD38B505000C0003F053F8298922
:1025B0004180618D8180218DC180A18D0181E18D5E
:1025C000418103F042FC32BD0021018541858185B6
:1025D000C18501864186704700210180418081814B
:1025E000C18170478A8802804A884280CA88828076
:1025F0000A89C2808A89028149894181704710B560
:1026000082B0040098342068002806D1684602F0A1
:1026100088FC002801D100982060206816BD10B504
:10262000040098342068002803D002F086FC0020C3
:10263000206010BD80B5684800F004F8002002BD9D
:10264000FFFF000038B5040025004C3500F09FF86E
:1026500001281ED0200000F0A6F8012819D0A87883
:10266000022805D009280CD12520205C000708D5B8
:10267000200000F01FF800281AD00100200000F010
:102680008CF9A878032804D1200000F045F8002830
:102690000ED0A878002805D12878012802D1200082
:1026A000FFF762FA6878012802D12000FEF701FEE8
:1026B000002032BD10B5040001F08DFA0222154948
:1026C000897A114203D1012814D0112010BD2100B4
:1026D00020314B791B0708D42000FFF791FE00281A
:1026E00016D109214E34217010BD0978114207D14D
:1026F000012803D12000FFF7C2FE10BD1A2010BD33
:10270000012801D1042100E006212000FFF703FF8A
:1027100010BD000070060020F8B50600002400F08F
:102720005FFF0090002801D10720F2BD0146300074
:1027300000F08DF90700300001F04DFA00280ED1AD
:10274000012F0AD13000FFF70AFF040003D0210057
:10275000300000F022F92000F2BD072506E0012F2D
:1027600003D13000FFF78BFEEFE70525002FF2D1F4
:1027700000993000FFF716FF040005D01A220F2140
:10278000300001F00DF9E0E74E363570E3E74C30EC
:102790000078012803D9401F01D0093801D1002059
:1027A0007047012070474D300078022801D1012088
:1027B0007047002070470079022801D80020704738
:1027C00001207047010005482422825C914201D11A
:1027D000203070470020704798300020783000206B
:1027E00010B50120FFF7EEFF040003D000214F30A9
:1027F00002F0C0F93C212000FEF719F9002C02D0AC
:10280000A078FDF74CFE10BD80B50120FFF7DAFF80
:10281000002802D08078FDF742FE01BD92008018AA
:1028200080300160704700230B60052A05DA9200B2
:102830008018803002680A6003607047002A00D167
:10284000704710B493079B0F05D00C780470401CA0
:10285000491C5B1EF9D192080BD00B7803704B78A2
:1028600043708B788370CB78C370001D091D521E96
:10287000F3D110BC7047002A00D1704710B4801803
:10288000401E93079B0F05D00C780470401E491C16
:102890005B1EF9D192080ED00B780370401E4B7866
:1028A0000370401E8B780370401ECB780370401E6F
:1028B000091D521EF0D110BC704710B406E0037819
:1028C0000C78A34208D1491C401C521E002A19D082
:1028D00003780C78A34201D0002014E0491C401C6E
:1028E000521E0FD003780C78A342F5D1491C401C2E
:1028F000521E07D003780C78A342EDD1491C401C2E
:10290000521EDCD1012010BC7047002A00D1704754
:1029100030B413008418641E9D07AD0F05D0521EFD
:1029200021706D1E641E002DF9D19B0809D08018FE
:10293000001FC1708170417001705B1E001F002B71
:10294000F7D130BC7047F0B581B004002068802515
:1029500001782943017027680026F64303E0206AC6
:10296000B04200D0804738782842F8D020680178FB
:102970003120084001B0F0BD70B504000D00160014
:10298000E0794006400EE07102F064FE0570218996
:102990004180866003F0AAF870BD70B505000C0098
:1029A000202101F08AFB2E0094363068002803D0E5
:1029B00002F0C3FA002030602100280000F009F87E
:1029C00000212800FDF729FD2800FFF73BFE00202D
:1029D00070BD38B505000C00E879810610D5DF21FF
:1029E0000140E97102F036FE0470298941805C35AE
:1029F000298881806988C180A988018103F0DEF877
:102A000031BD10B504004E23E35C1B1F05D09B1E97
:102A100019D05B1E012B11D917E0072A01D01A2902
:102A20000AD1202101F049FB2000FFF728FD0028F2
:102A30000BD00100200006E03B2904D0232902D15D
:102A4000FFF7C7FF01E0FFF7A8FF002010BDF0B5BA
:102A500000220B8D4C8D9C420ED105005C352E88DA
:102A6000A64209D16E888F8DBE4205D1AD88CE8D2C
:102A7000B54201D10120F0BD4E88002E0AD0B442EB
:102A80001AD30888984217D388888B8D984213D11F
:102A9000C8880DE014304688002E0DD0B4420BD308
:102AA00004889C4208D383888C8DA34204D1C088BB
:102AB000C98D884200D101221000F0BD10B504007C
:102AC0000121A07801F027FF01212000FFF7B7FACC
:102AD00010BD38B504001500E278501E8041C00FCB
:102AE000E0700A00E178A07801F06FFE2900A0787C
:102AF00001F05AFE31BDF8B504000F0016002500A4
:102B000052352A89E979A07801F021FD002E08D1FB
:102B100002F0E2FD2A89A11CC978FEF7B1FD01F09F
:102B2000E8FE2B88E889834200D20300AA896989DC
:102B3000A07801F0DAFCE889C000698903F0B2FCF2
:102B400081B2ED20800002F05CFF28882989C90845
:102B500041180A3189B2CA48814200DB411EA0787F
:102B600001F0EBFC3900A07801F06FFE012120009C
:102B7000FFF765FAF1BD000038B50C00002819D147
:102B8000D74D28008A30002141700078032803D1F6
:102B900028002030FEF7CCF92800203000F034F86F
:102BA000142C05DA2035280003A1A2008958884793
:102BB000FFF740FD31BD0000E52E0000E72E0000CC
:102BC000DF3200004F3400006B3500007335000029
:102BD00067330000FD320000E92E00007530000070
:102BE0005134000087330000FF3200000133000041
:102BF000FD320000FD320000FD320000793A000095
:102C0000FD320000FD32000010B50400FEF73BF974
:102C100001280BD1A0780100B14AC02358431018F5
:102C20008830007801F0CDF9012801D000F001F8DA
:102C300010BD30B583B0AA4C2000203000F058FF02
:102C4000002830D18B20205C00282CD101AA6946B5
:102C50002000203000F02EFF002824D100980578B5
:102C6000002D05D101462000203000F098F80EE03C
:102C7000012D05D101462034200000F0D8F837BDE1
:102C800068460279210020310098FDF716FF022DD9
:102C900009D101212220205C01F03DFE09212034D0
:102CA0002000FDF7B5FB37BD38B505000C0020004E
:102CB000FDF7F5FE02002100280000BF11A39200DD
:102CC0009A58904731BD000070B504000E003000E6
:102CD000FDF7E5FE05002000FFF76DFD00280DD093
:102CE000142D04DB3100200000F0E9FA06E0310089
:102CF000200000BF03A2AB00D2589047300002F082
:102D00000EF970BD0B2F0000AF2F0000EF30000058
:102D100099340000FD3300003334000029330000F3
:102D20003B31000013300000992E000055350000A3
:102D300045330000A131000095320000F938000051
:102D40008937000053380000E53900009D35000048
:102D5000D735000038B5050000200090684602F025
:102D6000C4F8002801D01F2032BD009C0220207032
:102D70005820285C6070A878E0772800FFF79EFE56
:102D8000022229002000FDF798FE32BD80B5030025
:102D90000800072101709978C1770222BFE2F0B5DF
:102DA00083B005000C0094202F58A87801F0DAFCBD
:102DB0002E005A36009601AB3A000100280002F0BE
:102DC000DDFDA87801F0CEFC6946898801F08EFC13
:102DD000002020705920285C60703088A0703088F6
:102DE000000AE070708820717088000A6071B088F5
:102DF000A071B088000AE071F0882072F088000AA3
:102E0000607268468088A07268468088000AE07216
:102E10000C2229002000FDF750FE040005D10122FC
:102E2000684681882800FFF766FE2000FEBDF8B5E1
:102E300006000D0001202870294C052221001031C8
:102E4000681CFFF7FBFC5E20315A491C0A204143F5
:102E500089B2B07801F079FC0700A871000AE87126
:102E6000082231002800FDF728FE050005D13A00B0
:102E7000103421003000FFF72CFE2800F2BD0000C6
:102E8000810C000038B505000C00E87910210143E1
:102E9000E971082000F01CFD70B504000E00804DA3
:102EA0006A8A022101F0FEF80221200001F005F9F2
:102EB000E01DA97A72780A40D106C90E4176817F59
:102EC00008220A4382770178EF220A400270721CBE
:102ED00000212000FFF750FD2000FFF7B3FB70BD7D
:102EE0007830002070477047704738B505000C00F7
:102EF0000920207008220021601CFFF706FD202019
:102F0000285C6070664800F0EEFC70B505000C00AF
:102F1000FEF7D2FB002849D12021280001F0CDF88E
:102F20002E0052366078F071E07800023081A1788E
:102F300008433081607901022079014320207289A1
:102F4000914203D0EA790243EA717181E179090281
:102F5000A2791143B289914203D0EA790243EA711E
:102F6000B181617A0902227A1143F2893280F289B1
:102F7000914203D0EA791043E871F181F089800031
:102F8000718903F08FFA401EB18980B2884200D95E
:102F90000800B08101212800FDF73FFA0022E07A05
:102FA0000102A07A01432800FFF7A5FD70BD70B5AE
:102FB00004000D0000F00FFE012805D1012224219C
:102FC000200000F06FF870BDA01C8178042901D0AA
:102FD00007291DD1E9790E02A9790E433100007845
:102FE00001F0A4FB012806D12820582160542000BC
:102FF000FDF77CFC70BD3200691C2000FFF769FD05
:1030000002212000FDF70CFA01212000FFF717F83C
:1030100070BD70B582B004000D0000200090261D28
:103020003078042801D0072823D1200000F0D3FDF8
:10303000012805D108222421200000F033F873BDB7
:10304000684601F052FF002813D100991448807A95
:103050006A780240D006C00E30772520205C082216
:103060000243252022542000FFF73FFF2000FFF7F6
:10307000E9FA73BD704710B50B0009490A880C24A2
:103080001C700C795C709A70120ADA70C988197118
:10309000090A597106220100180000F09FFC000087
:1030A0007006002070B582B004000D0016000020EC
:1030B0000090684601F019FF002801D0072076BD76
:1030C0000098210020314A79120707D5097849076D
:1030D00004D52B003200010000F073FC0D210170BB
:1030E000457002222100FDF7E8FC002076BD70B596
:1030F00005000E00AC1CA078401F012801D9C01E9D
:1031000002D12800FEF72AFB707858216854092163
:103110002800FDF77DF92800FFF7D0FC280000F01B
:103120005AFD0128207802D101F06FFA01E001F088
:103130005FFA2800FEF76AFF70BD70B504000D004D
:103140006878032802D12000FEF7EBFC687812288B
:1031500003D11021200000F0B0FF68780E2814D1B0
:103160000221200000F0A9FFE61D3078EF21014088
:10317000317000221A212000FFF7FEFBB07F0821EA
:103180000143B1772000FFF75DFA68780F2801D07E
:10319000102804D12A781A212000FFF732FC70BDD4
:1031A000F2B582B004000027009725004C353D267B
:1031B00000F011FD002808D12000FFF7E8FA0128EF
:1031C00003D12E732000FDF791FB200000F003FDDA
:1031D00001280BD12000FFF7DAFA012806D1287860
:1031E000032803D12E732000FDF780FB042120006B
:1031F00000F063FF25000835029840782877029890
:10320000C0780002A880029989780843A8800298B3
:1032100040790002E880029909790843E880687FD4
:103220000421014369772000FFF7B1FA012809D191
:103230002022029920009C30FFF700FB0120BC34C3
:103240002070F7BD0226687F30420BD1684601F03E
:103250004CFE00281DD100992000FFF70CFF687F6D
:1032600006436E77E079410610D5BF210140E17138
:1032700002F0F0F90090077029884180A9888180C8
:10328000297F4170E988C18002F0DEFC2000FFF751
:10329000D9F9F7BD80B54978FEF754FC01BD38B5C2
:1032A00005000C0000200090684601F01EFE00287A
:1032B00004D100994C702800FFF768FD31BD38B586
:1032C00005000C00FDF7DFFD002804D1217828005F
:1032D000FFF7E5FF31BD20782135287031BD10B5ED
:1032E0000400FF2100F0E9FE162058216054A07868
:1032F00001F07EF92000FEF789FE10BD704770478F
:1033000080B5FEF7BBFD01BD80B5030008000621B6
:1033100003E080B5030008000B21017001221900B1
:10332000FDF7CBFB002002BD80B54C21415C042998
:1033300002D00C2903D001BDFEF7DCFC01BDFEF775
:10334000AEFD01BD10B504004C342178062902D031
:103350000F2905D010BDFEF7EFFC0120207610BD2F
:10336000FEF7DCFD10BD38B504002500493500F03E
:1033700032FC012800D12870E8780D2802D1200005
:10338000FEF7A5FD31BD38B505002C004934E078C5
:10339000072805D12800FEF7B0F92800FEF7E7FC62
:1033A000E0780F2801D10020207031BD70B50500F4
:1033B0000C00032020702E00983608223168601C13
:1033C000FFF73CFA02223168283120000930FFF76C
:1033D00035FA08223168183120000B30FFF72EFA39
:1033E00004222900403120001330FFF727FA17226A
:1033F00029002000FDF761FB002070BD70B50500BD
:103400000C002E004C363078022811D10822491CBD
:10341000F06C2030FFF712FA042209342100280052
:103420004430FFF70BFA2800FEF73EFC012030760F
:1034300070BD4C21415C032900D0704780B5FEF778
:103440003EFC01BD80B5030008000A2165E7704716
:1034500010B5040000F0BFFB012802D10020483461
:10346000207010BD38B505000C0004202070082223
:10347000982029582031601CFFF7E0F90422290028
:10348000443120000930FFF7D9F90D222EE280B532
:1034900003000800052140E7F8B504000E0000F025
:1034A0009AFB012855D09448807AC00701D41A218C
:1034B0000EE001274C20205C002802D0102816D0F6
:1034C00017E000252000FFF79AF8002813D1072104
:1034D00003222000FFF7E6FD8748428A08212000EA
:1034E00000F0E0FD11212000FCF794FFF1BD012563
:1034F000E8E71F21ECE70822711C20004C30C06C6B
:10350000FFF79CF902223100093120004C30C06CD9
:103510002830FFF793F9082231000B3120004C309E
:10352000C06C1830FFF78AF90422133631002000EE
:103530004030FFF783F929002000FEF71DFC00282A
:1035400007D1002D03D106212000FCF761FF4C3488
:103550002776F1BD10B504004C3421780E2903D133
:10356000FEF7B9FC0120207610BD80B5FEF744FCC3
:1035700001BD012149300170704780B5030008008A
:10358000122103E080B5030008001321017099782F
:10359000C17701221900FDF790FA02BD38B5050088
:1035A0000C00002000905448807AC00604D5280002
:1035B000FFF7EDF8012804D121002800FFF77FFE76
:1035C00031BD684601F091FC002803D10099280024
:1035D000FFF7D8FF31BD80B5102100F06EFD01BDB1
:1035E00010B582B0040094344E30007800280DD11C
:1035F000206800280AD1684601F093FC002805D114
:10360000009820600021C18141854180206816BD5D
:1036100094300068C2894A70C289120A8A7082890D
:10362000CA708289120A0A71028A4A71028A120ACF
:103630008A71428ACA71428A120A0A72828A4A725C
:10364000C28A8A72C28A120ACA72028B0A73028BF7
:10365000120A4A73428B8A73428B120ACA73828B94
:103660000A74828B120A4A74C28B8A74C28B120A41
:10367000CA74028C0A75028C120A4A75428C8A75C9
:10368000408C000AC875704738B505000C000F2043
:1036900020702800FFF7BCFF182227E150B5418DAC
:1036A000028D8A4223D3062921DB1100B94B9942AE
:1036B0001DDAC38D0A3BB84CA34218D2838DFA247D
:1036C0006400A34213DA038E9A4210D334300022EE
:1036D0000623B24E0488B44205D0A24200DA22008A
:1036E000801C5B1EF6D1002A03D0914201DA1E2015
:1036F00050BD002050BD00007006002088780002F8
:1037000050854B7818435085087900021085CB7896
:10371000184310858879000290854B79184390856D
:10372000087A0002D085CB791843D085487A108674
:10373000C87A000250868B7A18435086487B000274
:1037400090860B7B18439086C87B0002D0868B7BCB
:103750001843D086487C000210870B7C18431087E2
:10376000C87C000250878B7C18435087487D00023C
:1037700090870B7D18439087C87D0002D087897D94
:103780000843D0870020704770B504000E00B94888
:10379000807A800700D48BE02000FFF704F801282E
:1037A00001D12A2216E04E20205C00280CD00228ED
:1037B00003D0062808D0092804D1200000F00BFA15
:1037C000002801D0232205E02000FFF709FF0500B3
:1037D00002D107220F216FE02A0031002000FFF7FD
:1037E0008DFF2800FFF75AFF002809D01E220F2165
:1037F000200000F0D5F81E212000FFF7CEF870BDA4
:103800004E20205C022803D0062801D0092802D1CE
:103810002800FEF7E1FE2000FEF7B9FF01280AD1DB
:103820004E20205C002801D0022804D10321200072
:10383000FCF7F3FD70BD2000FEF76EFF70BD38B5DC
:1038400005000C00102020702800FFF7E1FE182270
:103850004CE070B504000E008648807A800700D4E2
:1038600026E04E20205C042802D02422102123E0F0
:103870002000FFF7B5FE050019D02A003100200016
:10388000FFF73CFF2800FFF709FF002806D01E22A3
:103890001021200000F084F81E2105E02000FEF732
:1038A000EEFD002803D001002000FFF776F870BD80
:1038B0002000FFF704FD70BD200000F071F870BD1E
:1038C00038B505000C00E87910210143E9710E209C
:1038D000207008220021601CFFF717F86548817AE4
:1038E000C906C90E6170C07AA070092229002000A3
:1038F000FDF7E3F8002032BDF8B504000F0000200A
:1039000000902079001F042843D82000FEF73FFFD5
:10391000012809D12022390020009C30FEF78EFFBB
:103920000120BC342070F1BD0825524EB07A2842E7
:1039300004D139002000FFF7C2FCF1BD200000F0E7
:103940004AF9002805D10E2224212000FFF7AAFB06
:10395000F1BD684601F0C9FA00281AD10099B07A81
:10396000284205D1387848702000FFF70FFAF1BDE2
:103970007A780240D006C00E221D10772520205CE8
:103980000543252025542000FFF7AFFA2000FEF75D
:1039900059FEF1BD810C0000770C0000FFFF000014
:1039A00070B582B004000D0016000020009068463B
:1039B00001F09BFA002801D0072076BD33002A00D1
:1039C0000099200000F001F876BD10B50400080051
:1039D000112101704270837003222100FDF76DF800
:1039E000002010BD70B582B005000C002148807A1F
:1039F00040070DD400200090684601F076FA0028B8
:103A000036D10099207848702800FFF7BFF973BDC0
:103A10006078032803D1A1782800FEF793F8607836
:103A2000122803D11021280000F047FB60780E28EF
:103A300014D10221280000F040FBEE1D3078EF2168
:103A4000014031700022A1782800FEF795FFB07F79
:103A500008210143B1772800FEF7F4FD60780F28B4
:103A600001D0102804D12278A1782800FEF7C9FFE0
:103A700073BD00007006002080B5FEF7FFF901BDA0
:103A800010B503007C331C78042C01DBFF2010BD33
:103A90005C78A4000019C166CA771878401C1870B9
:103AA0005878401C5870C0B2042801DB00205870C0
:103AB000002010BD30B5002304007C342578002D93
:103AC00014D0A578AD004519ED6E0D60E97F117039
:103AD0008078E8772078401E2070A078401CA07085
:103AE000C0B2042800DBA370002030BDFF2030BD31
:103AF0007C300078002801D000207047FF207047FC
:103B00007C300021017041708170704720B5002524
:103B100003F057FA012800D1012503F063FB0128C7
:103B200002D1280002250543A4482421415C002934
:103B30000BD0022903D005D22900012504E0290079
:103B4000042501E0290008250D43457020BD80B5FE
:103B50009B4801F081FD00F046FB03F049FB00F0BB
:103B600002F8002002BD70B5944C0025657001205C
:103B70002073657365716576658365756580A5716C
:103B8000E573904E70723F207071DB20B07103F0CE
:103B900035F903F03AFAFDF717FB0020FCF743FC78
:103BA0003572F571A57370BD80B503F02DFB00F083
:103BB00002F8002002BD80B5C3480078002801D17A
:103BC00000F011FBFFF7CFFF03F014FB01BD80B540
:103BD000FFF79CFF01BD67300078002800D001206E
:103BE000704710B50400207861780143A07808433D
:103BF000E1780143207908436179014301D1122022
:103C000010BD01F005FD002801D00C2010BD2000E2
:103C100000F06AFF002010BDBB480078704780B5F7
:103C20006A46BA49082001F09BF969460020085607
:103C300002BD80B501F0FDFC002801D00C2002BDC2
:103C400000F08CFE002002BD38B50500002401F014
:103C5000F0FC002801D00C2032BD691C287800F04F
:103C6000BFFEFF280AD100F013FFFF2804D06A1C12
:103C7000297800F07FFE02E0072400E01F242000E6
:103C800032BD38B50400002501F0D3FC002801D076
:103C90000C2032BD611C207800F0A2FEFF2802D06B
:103CA00000F097FE00E01F25280032BD10B5434C00
:103CB000E07B00060DD520002030FDF7F1FA012849
:103CC00007D0E07B4006400EE07320342000FDF773
:103CD000F0FA002010BD80B538486D21415C012903
:103CE00002D12030FDF7E5FAFFF7E0FF01BD00202B
:103CF000704738B504000D00102101F020F91021A3
:103D00002000103001F01BF92200103221002000A9
:103D1000103002F028FC10212000103001F00FF9C3
:103D200002202870200003F0C3FA32BD80B500786D
:103D300000F053FF022006E080B5027881784078D9
:103D400000F029FF01201D498876002002BD10B532
:103D50000C0000F05CFF0021184A937E012B00D17B
:103D6000002091760221217003F0EDFA002010BDB1
:103D700010B50C00FCF79DFB002802D0017900294A
:103D800001D1022010BD2200C178807800F03EFDF4
:103D9000002010BD10B50C00FCF78BFB002803D0F1
:103DA000FEF709FD002801D1022010BD2200BC4908
:103DB000082001F0D5F8002010BD00007830002068
:103DC0007C060020D838002038B50D00FCF771FBC8
:103DD000040003D0FEF7EFFC002801D1022032BD21
:103DE0006A4621000A31042001F0BAF82A000A3498
:103DF0002100062001F0B4F8002032BD70B50400A7
:103E0000607881068D0FE1780E02A1780E430002E2
:103E1000217808430005000DFCF74BFB00280FD06C
:103E2000022D0DD0032D0BD0002E04D100210089CE
:103E300001F0F0FE04E00179092901D0002903D145
:103E4000200001F042F870BD210000F001F870BDC3
:103E5000F8B504000E00A71CB878092818D000286F
:103E600016D06620205C401C662160542000FEF7BE
:103E7000CDF8387800F02AF805002A00310020003B
:103E800000F046F8002806D12900387800F02DF817
:103E9000300001F01AF8F1BD38B59C4D0522010043
:103EA0002800FEF7CBFC9A4C052229002000103098
:103EB000FEF7C4FCFDF72AFBE07B80210143E173A0
:103EC000FFF7F4FE32BD00009C3900209049C0226B
:103ED0005043081889300178491C0170C9B205297E
:103EE00001DB002101700078704738B504000D0037
:103EF000002C03D101218748FEF7A1F829002000FA
:103F000000F08CFB31BD0000A806002090060020C8
:103F1000F0B583B005000C00160060788006870FAE
:103F2000E07800026946888068468088A178084366
:103F3000694688802800FCF7A6FF694688716846B4
:103F4000807900281CD13800FCF722FE07003B00D6
:103F500001AA29002000FDF768FC68468088C0B2ED
:103F60000090231DFF223100A87800F07FFB3B006A
:103F700068468288D2B23100A87800F05AFB04E08B
:103F8000320021002800FEF749FC68468079FEBD1A
:103F900070B50400002602F0A3FE0500200002F028
:103FA000A6FE002101228A40154205D0104203D10D
:103FB000330016001E43B6B2491C0529F2DB30005F
:103FC00070BD70B505000C00200002F089FE0126CE
:103FD000AE400500200002F08AFE01002943314076
:103FE000080000D00120C0B270BD10B50400080068
:103FF00002F07DFE0121A1400140080000D0012017
:10400000C0B210BD38B500240020FFF7C1FF050085
:104010000ED02800E040C00707D52100002000F0A6
:1040200044FB2100002000F004F8641C052CF0DBA8
:1040300031BDF8B505000F0000262900380002F058
:1040400066FE0400002D1ED1314D28002030FCF703
:1040500055FF032C04D10021380002F05EFE06005B
:104060003900002000F03CFE032C0DD1310000206F
:10407000FEF782FD28002030FDF7C8FF0221203521
:104080002800FDF7DCFFF1BD002C04D00121002049
:10409000FCF79EFCEEE73900002000F021FEF1BDA8
:1040A0009106002083791943817100D1704780B552
:1040B0001100807800F024FE01BD82798A4382716C
:1040C00000D0704780B5807800F032FE01BD38B571
:1040D0000400002500952A0069462000FEF7A3FB96
:1040E0000098002801D000F0F0FE2900A07800F030
:1040F000F0FA2900A07800F0F3FD6D1C052DEADB35
:1041000031BD01207047002070470000D8380020E2
:10411000783000209830002038B5040014E038B51D
:104120000400012806D0022806D0042806D008285A
:1041300006D009E0EA2004E0EC2002E0EE2000E0F6
:10414000F820400002F014FEA94D102001F056FCAA
:1041500004432C802988102001F053FC31BD38B570
:104160000400A34D102001F049FCA0432880F1E792
:1041700038B50400F8204000012C04D0022C04D0F3
:10418000042C04D004E01C3802E0183800E0143895
:10419000002202F0D7FD964D102001F02FFCA04325
:1041A0002880D7E780B50100082000F0ABFB38B5C8
:1041B0000C001100012806D002280BD004280BD0D7
:1041C00008280BD031BD2025082809D1B02001F0E6
:1041D00018FC05E03825F7E75025F5E7A825F3E7B3
:1041E00021002800B8E738B5FF210120FFF7C0FF04
:1041F0003F210220FFF7BCFF1F210420FFF7B8FF7B
:10420000FF210820FFF7B4FF3020FFF7A8FF80212F
:10421000002001F0F6FB0020A6490870A6480168BE
:10422000080001D00020884700220021012000F072
:1042300097FEA24C250022356988EA20400001F053
:10424000E0FBA988EC20400001F0DBFBE988EE20D0
:10425000400001F0D6FB0021B02001F0D2FBE9893B
:10426000F820400001F0CDFB002000F000FB6A4682
:1042700021002031072000F073FE68460188E62007
:10428000400001F0BEFB6A4621002131072000F00A
:1042900067FE68460188F220400001F0B2FB698A9F
:1042A000FC20400001F0ADFB2988E820400001F02F
:1042B000A8FB20000C3000F02DFC20000C3000F09A
:1042C00013FC00F04BFB298BB82001F09AFB698BA3
:1042D000BC2001F096FBA98BC42001F092FB3F208B
:1042E000FFF71AFF07219320C00001F08AFB542139
:1042F000002001F086FBE02000F08BF8E82000F0C1
:1043000088F8F02000F085F80020FDF7B6FE46346E
:104310002078617809020143B34801F072FBE97D1E
:10432000B24801F06EFB80214900AC2001F069FB2E
:104330000021832080000FE710B504006079217907
:10434000042901D1C84900E049000143A07B0428A9
:1043500002DA0A00C1001143607B40010843A179E1
:104360000A020243E02189011143182001F049FBB0
:1043700021881C2046E110B50400E02000F049F837
:1043800023785B1CDBB222000021E02001F060FBFF
:1043900010BD10B50400E82000F03BF823785B1C4A
:1043A000DBB222000021E82001F052FB10BD80B5F5
:1043B0004048017801220A4302703F480168080022
:1043C00001D0012088474021002001F01AFB012084
:1043D000FFF7A2FE01BD80B50120FFF7C0FE41211D
:1043E000002001F00EFB33480278FE2156E0000069
:1043F0008839002080B508E080B50B00020000215C
:10440000F82001F001FB01BD80B5F82001F0F6FABB
:1044100002BD38B504001025200001F0EFFA6D1E32
:10442000FAD131BD10B50400607921794A00024308
:10443000A079C1001143302001F0E3FA218828203F
:1044400001F0DFFA61882C20DCE080B54278202181
:10445000302002F077FC1748017802220A430270EC
:1044600015480168080001D001208847422100203A
:1044700001F0C7FA0220FFF74FFE01BD80B5022010
:10448000FFF76DFE00222021302002F05BFC43216B
:10449000002001F0B6FA07480278FD2111400170B2
:1044A00005480268100003D0080000D001209047A2
:1044B00001BD00009A3900207039002070060020EC
:1044C00010B50400207E6279520002432079C000BA
:1044D000104349010143482001F093FA218840200C
:1044E00001F08FFA618844208CE070B50C00150053
:1044F0001E000100B02001F084FA2100E9208000B4
:1045000001F07FFA2900EA20800001F07AFA3100F8
:10451000EB20800001F075FA6C43A1B2EC20800022
:1045200001F06FFA70BD10B50C000100B02001F071
:1045300068FA21008620400064E010B50C000100FC
:10454000B02001F05EFA2100822040005AE038B528
:104550000C0015000100B02001F053FA2100842066
:1045600001F04FFA29008020F6E510B50C0001009B
:10457000B02001F046FA21008420400042E080B5DE
:104580000100B02001F03DFA012205E080B50100F4
:10459000B02001F036FA002220218E20400002F0E7
:1045A000D1FB01BD80B56048017804220A43027046
:1045B000B8480168080001D0012088474421002044
:1045C00001F01FFA0420FFF7A7FD01BD80B501002F
:1045D000B02001F016FA4521002001F012FA5248ED
:1045E0000278FB215AE70000140A0000180A0000B4
:1045F00010B504002100B02001F003FA2002702160
:104600000143002001F0FDF910BD10B504002100A8
:10461000B02001F0F6F920027121F1E710B50C008D
:104620000100B02001F0EDF98021214394204000E9
:10463000E8E7F2B5060017001C00084602F061FB2F
:1046400005003100B02001F0DCF93002B90001436F
:104650002143280001F0D5F9B84869460978401887
:104660008455F1BD0000000002040000F8B5070009
:104670000E0014001D0000F009F8069B2A0000211E
:1046800001F0FEF9B1488019C455F1BD10B50C0018
:104690000100B02001F0B5F9A001C021C900401807
:1046A00080B210BD80200001704710B50C000100E1
:1046B000B02001F0A6F9210096204000A2E710B535
:1046C0000C000100B02001F09CF921009420400072
:1046D00098E738B505000C00FFF7F1FF210028002E
:1046E000FFF7E3FF31BD401880B27047814201D32C
:1046F000081A02E0964A101A401880B2704710B5A6
:1047000003000020994201D3C91A02E0904CE31A39
:10471000591889B280231B02994201DA914200D2D2
:10472000012010BD000000009A39002010B50C00D7
:104730000100B02001F065F99220400001F05EF91F
:1047400002222100FFF7DBFF10BD10B50C000100B5
:10475000B02001F056F99220400001F04FF9001905
:1047600080B210BD80B50100B02001F04AF992205E
:1047700040004BE610B50C000100B02001F041F9FB
:104780006078010220780143882001F03AF9E0784E
:104790000102A07801438C2001F033F96079010215
:1047A0002079014390202DE738B504000D00210049
:1047B000B02001F026F929008C20400001F021F9F9
:1047C00020024B2101430020C6E4F8B58824537829
:1047D0001E0213781E43D3781D0293781D4353792C
:1047E0001F0212791743002900D098240100B0203D
:1047F00001F007F93100200001F003F92900201D24
:1048000080B201F0FEF839000834DEE038B514005B
:104810008825002900D098250100B02001F0F1F88A
:10482000280001F0EBF82070000A6070281D80B2AB
:1048300001F0E4F8A070000AE0700835A8B201F0B9
:10484000DDF82071000A607131BD38B504000D003B
:104850002100B02001F0D5F8691E89B28C204000FB
:1048600001F0CFF820024C210143002074E480B510
:104870003849C022504308188830FF214170017028
:10488000002181703448418D8E20400002F070FA82
:1048900001BD00007039002010B504002100B020D7
:1048A00001F0AFF82B48C021614340188830FF2148
:1048B00041700170002181700022200000F0F4F9A5
:1048C00010BD80B52349C022424389188831FF2298
:1048D0004A700A7000228A70002100F0E5F901BDDB
:1048E00080B580214901884200DB481E0100B020CC
:1048F00007E080B580214901884200DB481E0100A5
:10490000B220400001F07DF801BD80B500024D21CC
:1049100001430020F6E738B50C000100B02001F09B
:1049200070F88E256D00280001F068F8574A0240A3
:10493000A10111432800FFF70FFC00004C390020B3
:1049400080B5B02001F05AF8C0B202BD4439002051
:10495000FFFF0000783000207006002080B50021A5
:104960007C2001F04EF80021782001F04AF87421F3
:104970000020C7E7F8B504000E0017000125A54088
:104980000122A9B27C2002F0DDF93200A9B2782020
:1049900002F0D8F9F8780602B8780643787905026B
:1049A000387905430C204443D020800024187878BF
:1049B000010238780143A0B201F023F8241D310030
:1049C000A0B201F01EF82900241DA0B201F019F8D0
:1049D000F1BD80B500220121814089B27C20DEE555
:1049E000F1B586B0FF206A461071487800020A7857
:1049F00010430490C87800028A78104303904879E5
:104A000000020979084302907C2000F0F7FF694614
:104A1000C880782000F0F2FF07007421002000F029
:104A2000F0FF0024012501E0641CE4B2AB480078EB
:104A3000844226DAD020800000F0E0FF0600D0207B
:104A4000800000F0DBFF049A72400399414011435B
:104A50000091029ED020800000F0D0FF46400099D7
:104A60000E43E1D10120A0406946C9880842DBD04D
:104A70006846007E3900E14029408842D4D168462A
:104A800004716846007907B0F0BD0000BFFF000068
:104A900010B5FF247C2000F0B1FF0021A34A00E004
:104AA000491C3823D35CC9B2994204D20300CB40DD
:104AB000DB07F5D40C00200010BD000010B5040089
:104AC0006078010220780143682000F09AFFE078C6
:104AD0000102A07801436C2000F093FF607901028D
:104AE0002079014370208DE510B504006078010243
:104AF00020780143582000F084FFE0780102A0787C
:104B000001435C2000F07DFF6079010220790143C0
:104B1000602077E510B50400607801022078014339
:104B2000E020400000F06DFFE0780102A078014332
:104B3000E220400000F065FF607901022079014326
:104B4000E42040005EE570B50400682000F056FFE8
:104B500006006C2000F052FF0500702000F04EFFB0
:104B60002670310A6170A570290AE1702071000A6F
:104B7000607170BD10B50400012906D1482000F015
:104B80003DFF8107C90F217010BD182000F036FFCE
:104B9000C00B207010BD34B505000C000022694622
:104BA0000C2000F0DDF9A802E1010143684600781D
:104BB000014389B2B820400000F023FF99480178F2
:104BC00008220A43027098480168080001D00120B9
:104BD000884746210020FFF7BFFA01B50022694649
:104BE0000D2000F0BDF968460178B820400000F0C3
:104BF00008FF8C48017808220A4302708A4801683D
:104C0000080001D001208847472100207AE610B52E
:104C10004821002000F0F5FE82480278F72111407B
:104C2000017081480268100003D0080000D0012004
:104C30009047B8246400200000F0E0FE4006FAD45B
:104C4000002200210E2000F08BF9BA20400000F075
:104C5000D5FE10BD80B50B0002000021F0208000C1
:104C600000F00EFF01BD80B57F4908884880FFF73E
:104C700076FA01BD80B57C484088FFF74DFA01BD4A
:104C800038B50C000100B02000F0BBFE8E256D0091
:104C9000280000F0B3FE754A0240224380214900FB
:104CA00011432800FFF758FA70B50E0014000100F8
:104CB000B02000F0A6FE8E256D00280000F09EFEBC
:104CC0006A4A024032436A491140002C02D108006E
:104CD00010214140280000F094FE70BDA80600207D
:104CE00010B50C000100B02000F08BFE200002F097
:104CF00008F80021FFF786FC80B5C820FFF786FB87
:104D000038B50D0004002100B02000F07AFEA800A4
:104D1000052101F0CAFB81B2564800F072FE200264
:104D2000722101430020FFF717FA000070060020EF
:104D300010B504002100B02000F063FE20027321B2
:104D4000FFF75EFCF8B50C0017001D000100B02055
:104D500000F057FEF420400000F050FE06008020D6
:104D6000400000F04BFE20808420400000F046FE12
:104D700038808220400000F041FE28807007400FFC
:104D800006990870F1BD38B50400A1252D01280051
:104D900000F034FE012C02D10121014301E036492B
:104DA0000140814202D0280000F02BFE31BD10B539
:104DB0000C000100B02000F024FE21002F48FFF776
:104DC00021FC10B50400182000F018FE2C4A024007
:104DD0006007810C11431820FFF714FC10B5040084
:104DE000182000F00BFE8004400F207010BD10B59D
:104DF000040200290ED10100B02000F002FE0021C3
:104E0000A220000100F0FDFD00211E4800F0F9FD88
:104E1000762104E00100B02000F0F3FD752121436C
:104E2000FFF7EFFB9A3900207039002070B50C00B5
:104E3000160005002900B02000F0E3FD2100A220AB
:104E4000000100F0DEFD31000E4800F0DAFDC02167
:104E500009020820FFF763F92802752101430020A9
:104E600000F0CFFD70BD000088390020F0FF000089
:104E7000FFFE0000040A0000FEFF00001C0A000004
:104E8000FFC70000240A000010B50400080000F06D
:104E900080F92060002801D1052010BD002010BD40
:104EA00080B500E080B500F0D8F9002800D00520DA
:104EB00002BD10B50400242000F06BF9206000282A
:104EC00001D1052010BD002010BD80B5EBE710B565
:104ED0000400242000F05DF92060002801D10520A5
:104EE00010BD002010BD80B5DDE710B50400202006
:104EF00000F04FF92060002801D1052010BD0020EE
:104F000010BD80B5CFE710B50400202000F041F9B6
:104F10002060002801D1052010BD002010BD80B503
:104F2000C1E710B50400402000F033F920600028EC
:104F300001D1052010BD002010BD80B5B3E730B50C
:104F400000224B1E05E0845CC55C8554C454521C91
:104F50005B1E4C08A242F6DB30BD08070700FFFFCE
:104F600010B50B001400401E08282BD801A1095CC5
:104F70008F4400BF0A101C262A3038424A0000F035
:104F800054F810BD59681868C0B200F01CF818E059
:104F9000187800F033F8206010BD188809E000F0A0
:104FA00093F806E0188800F079F80AE0187800F025
:104FB0007FF8208010BD187800F072F801E03F48BB
:104FC0000078207010BD70B504000D000902090CB6
:104FD000DA20400000F015FDD62676002002EAB265
:104FE0000243802109021143300000F00AFD300025
:104FF00000F004FD8005FAD5002070BD38B5D62438
:1050000064000102200000F0FCFC200000F0F6FC2F
:105010008005FAD5DA20400000F0F0FC05022000FF
:1050200000F0ECFCC0B2284332BD38B5244D2878DE
:10503000C100D82000F0E5FC2800663081780C0221
:1050400000780443298CC820400000F0DAFC698C09
:10505000CC20400000F0D5FC21009620800000F01C
:10506000D0FC002400201749401C80B28842FBD1AC
:10507000600028186A30018880221202914209D00B
:105080007F29018F008803DAC0B2FFF79CFF01E09F
:1050900000F0B7FC641C1C2CEADB31BD40B2704749
:1050A00007490007000F08185430007840B27047D5
:1050B00003490007C00E0818808E7047FB050020CA
:1050C00094050020FFFF000080B5A420000100F03F
:1050D00095FC02BD824801884088081A7047F0B5E7
:1050E00081B0804F804D814C0020388201E01C351A
:1050F0003F1DB978F8780006000C0143684601802E
:105100000688F6B23100280002F088F900202874E1
:105110006874A874E87428756875A875E8752876A9
:1051200068766846008800061BD02100280002F03F
:105130007BF9E560287C697C0906090C0843401C62
:105140002874000A68746748008A401C6549088210
:10515000387879780906090C084324181034761E2B
:10516000E3D1387879780906090C0843A873000A56
:10517000E873387979790906090C08432873000A1D
:105180006873287B697B0906090C0843AFD101B01D
:10519000F0BD30B581B00500534C012002F0FEFA9D
:1051A00000E01C34002D49D0A07BE17B0906090CEE
:1051B0000843A8423CD3200002F05CF900282BD021
:1051C000050010354748018A491E0182A07CE17C18
:1051D0000906090C0843401CA074000AE074207DF5
:1051E000617D0906090C0843A17CE27C1206120CC1
:1051F0001143884207D2A07CE17C0906090C0843D0
:105200002075000A6075217C607CA17CE07C012017
:1052100002F0E6FA28001EE0207B617B0906090CFB
:105220000843A8420AD3257B607B0006000C054397
:10523000207B617B0906090C0843B2D1A07DE17D8A
:105240000906090C0843401CA075000AE0750120FE
:1052500002F0C6FA002001B030BD30B581B00500C3
:1052600021D0012002F09AFA2800083844681E492B
:105270008C4206D10068002817D008E01C318C420F
:10528000F8D00A7B4B7B1B061B0C1A43F6D1207E01
:10529000617E0906090C0843401C2076000A6076EE
:1052A000012002F09DFA032017E00E48018A491CF4
:1052B0000182103D2900200002F0B6F8A17CE07CBC
:1052C000A07CE17C0906090C0843401EA074000A7A
:1052D000E074012002F084FA002001B030BD00002B
:1052E00090340020C0F0FF1F48340020D4F0FF1F8E
:1052F00000B581B0103902F097F801B000BD00B5DB
:1053000081B002F0B7F8002800D0103001B000BD25
:1053100000B585B0854886490860A449086002F058
:1053200087FA04A8039000200290019007200090C3
:105330000023C822920000BFADA19D4802F010FAE0
:1053400002F078FA002005B000BD70B501784A0976
:10535000CC06E40E451C002A03D0022A1AD00BD337
:1053600026E0042C29D104222900924802F0D6FA22
:105370000422290055201EE0152C1ED28E4E22003C
:105380002900300002F0CAFA00203055220029001E
:10539000552010E0152C10D2884E22002900300034
:1053A00002F0BCFA0020305522002900552002E00E
:1053B00000220021AA2002F047FB002070BD00005F
:1053C000F0B587B002A8142102F0A0FB7E4802F0DD
:1053D00036FC02F045FCFFF782FE02F043FC01F0D0
:1053E000BBF803F07BF803F0C5F803F0F7F801F021
:1053F00099FB02A801F0BFFB02AC201D01F0BBFB32
:105400002000083001F0B7FB20000C3001F0B3FBA6
:105410002000103001F0AFFB02A801F0CAFB02F03F
:1054200077FB6A4C6A4820606A486B49086002F062
:10543000A3FA00212000103002F01EF90021201DE7
:1054400001F0ECFF052200BF6BA15B4802F066FA99
:105450000020584908600D2269A1584802F05EFA00
:105460000025ED4301A800902B000022022120001E
:10547000103002F01BF903F0B7FA514851490A689D
:10548000120A02700A6842704A68120E82704A68F4
:10549000120CC2704A68120A0271496841710020F8
:1054A00003F0F6FA4D4805F01FF9002807D0002355
:1054B00000220021002005F087FA07B0F0BD03F0BC
:1054C000C1F82F0A01A800902B000022390020000B
:1054D000103002F0EBF80198C007F3D504E005F0B6
:1054E0002DF93000FFF7B9FE60680028EAD0201DD2
:1054F000FFF705FF0600F7D0F1E7704700B581B070
:1055000037490B688022D2000100364802F081FB47
:1055100001B000BD00B581B0314B1B6800930B009A
:105520000100304802F004FB01B000BD0048E80172
:105530005839002000B581B0030008001900FDF7BC
:105540007DF901B000BD00B581B0001D02F0DCF8AE
:1055500001B000BD10B582B00902090A521E924185
:10556000D243D20F049C0094001D02F09FF802B0B9
:1055700010BD00B581B00090684601F0B9FF010090
:1055800000D000BF01B000BD00B581B000906846FA
:1055900001F0D6FF010000D000BF01B000BD72B61F
:1055A00011481249086000BFFDE70000FC09002017
:1055B000C1530000AC0A002070370020883700205B
:1055C0000C0A002058800440E4340020B837002042
:1055D000006C0200FB54000074390020F7A70000A3
:1055E000E0070020E40700200400FA050CED00E0CD
:1055F0006D61696E000000004D5A545300000000B8
:10560000323032322E30392E32392E310000000045
:1056100070B53F48C478200001F0BEFC05002000B2
:1056200001F0D7FD06002E432000FBF7EDFC3043D0
:1056300070BD70B536488478200001F0A4FC0500E8
:10564000200001F0BDFD06002E432000FBF7DDFC2D
:10565000304370BD2F48704710B52D492E4A8A60DF
:10566000002283189B78002B01D08C182372521CC7
:10567000042AF6DB8868FF229A325043886000F0E3
:1056800005F8FBF78CFB0128F9D110BD10B5FFF729
:1056900033FB01001E4A906848404108C307440795
:1056A0005C400307634084065C40604080231B0627
:1056B00018400843906010BD80B505F013FA000251
:1056C000000A02BD10B505F00DFA0400FBF767FBF8
:1056D0000128F8D1200010BD80B56A4600210920BC
:1056E000FFF73EFC6846007802BD80B505F0FAF988
:1056F000009000216846405CC006C00E421F0C2A84
:1057000000D202BD491CC9B20429EFDAF2E7000059
:1057100078300020283200200403020138B50D0043
:105720001900059C2070030A6370030CA370000E1F
:10573000E0706806400ED201024322710422601D0F
:10574000FDF77CF80422049909342000FDF776F86F
:1057500031BDFEE74018C003000C704780B5FFF76D
:10576000F9FF02BD10B5040008007B4900F09AFE65
:10577000C01C21005C310A8880B2824200D810002F
:105780005200101AC880754842780078130203430B
:1057900005D0CC88A34202DA12020243CA8010BDAF
:1057A000F8B505006E48C021694344182034807B59
:1057B000002811D127005A3778884600FFF79CFA55
:1057C00082190092001DB1B200F06CFE009A501ACE
:1057D000001D3988401A20802800F2BDF4B506006B
:1057E0000C00002A2CD017465E480078002801D112
:1057F00007E07F08F80704D57810864201DA0C2FFD
:10580000F7DA3000390000F04DFE050030003900B5
:1058100000F048FE002900D06D1C7D43ADB2AC42C3
:1058200000D2350020006946098800F03BFE0100E7
:1058300068460088414389B2A94202D2210000E0B3
:10584000350028040843F2BDF8B517001E00FFF725
:10585000C5FF0400050C002E13D03A000699300055
:10586000FFF7BCFF0100000C854202D2A4B28442C3
:1058700000D2280089B2A4B2A14203D2A94202D226
:1058800000E028002100000489B20843F2BD002393
:10589000012A01D1030002E0002A00D10B00180008
:1058A000704710B504000800002C02D0012C04D071
:1058B0000DE000280ED1042010BD5900891E89B2C8
:1058C000814207D310008A4204D9080002E0101870
:1058D0000004400C022800DA022010BD7047704717
:1058E00010B55E21415A0A01541A10348078FEF72F
:1058F00039FFA1B2FEF7F7FE10BDF8B504000D00A8
:105900001700002B21D0069E002221001846FEF72A
:10591000F6FE01280CD1684601882000FEF7E6FE5D
:105920007843801980B2290000F0BCFD080010E027
:10593000210068460088FEF7D9FE7843801B80B2BC
:10594000290000F0AFFD681A03E02800062100F0EE
:10595000A9FD80B2F2BD000071020000B206002075
:10596000783000209E3900200023914204D0002886
:1059700002D0824200D3030018007047F8B582B00D
:10598000140050300500491C89B22888401C0A22A6
:10599000504380B20E18608E002803D069460880FC
:1059A000A78E03E06846E18A0180278B0022B1B20E
:1059B00068460088FEF7A3FE01280CD168460188DE
:1059C000B0B2FEF793FEA9884843C01980B2A18CFB
:1059D00000F068FD0DE0B1B268460088FEF786FE73
:1059E000A48CA9884843C01B80B2210000F05AFD56
:1059F000611A0298068008980180F7BD1249405A42
:105A00007047114A81527047F8B5070014001D0015
:105A1000681C0E4901400091002608E03800FFF79D
:105A2000EDFFA1190870000A4870B61CB6B20098C4
:105A30008642F3DBE80705D560190178421E13782A
:105A400003701170F1BD000000B00540FEFF0000C2
:105A5000F8B50400170000255E1E08E04178090231
:105A6000007801432000FFF7CCFFAD1CADB27819E0
:105A7000B542F3DB03D101782000FFF7C2FFF1BD8F
:105A8000F8B50400170000255E1E09E04178090200
:105A900000780143A0B2FFF7B4FF241DAD1CADB2E6
:105AA0007819B542F2DB03D10178A0B2FFF7A9FF64
:105AB000F1BDFEE780B5FBF7D7FA02BD80B5FBF775
:105AC00065FB02BD80B5FBF726FC02BD80B5FBF788
:105AD000B5FB02BD80B5FEF7DFF902BD80B5FCF76E
:105AE000ADFB02BD80B5FCF7DFFB02BD38B505009C
:105AF000002000906946102001F0C1FB002801D071
:105B0000072032BD009C3E2020700420A070287821
:105B1000E070688820716888000A60712878002821
:105B200005D10822A968A01DFCF788FE04E0082220
:105B30000021A01DFCF7E9FE0C206070210004206C
:105B400000F088FC32BD38B50400002000906946A2
:105B5000172001F094FB002801D0072032BD009DE2
:105B60003E2028700120A8702078E8706088287195
:105B70006088000A68716078A8712079E87106224F
:105B800021000C3128000830FCF758FEE088A8738B
:105B9000E088000AE873208928742089000A687464
:105BA0006089A8746089000AE874607928751320F8
:105BB00068702900012000F04DFC32BD10B582B0A4
:105BC00004000020009069460E2001F058FB0028D8
:105BD00001D0072016BD00993E2008700320887070
:105BE0002078C870608808716088000A4871A088B1
:105BF0008871A088000AC871E0880872E088000AED
:105C00004872208988722089000AC8720A20487068
:105C1000032017E170B582B004000E000025009546
:105C20006946092001F02BFB002801D0002076BD39
:105C300000991320087001208870CC70200A087128
:105C40004E718D71052084E010B582B004000020F3
:105C5000009069460C2001F012FB002801D00020C2
:105C600016BD00990C200870207888706088C87074
:105C70006088000A087160784871A0888871A088DF
:105C8000000AC871E0880872E088000A487208209B
:105C9000D6E070B582B005000C0016000020009020
:105CA0006946082001F0EBFA002801D0002076BDFB
:105CB0000099052046E080B501220A70FBF775FFC8
:105CC00002BD38B50500002000906946112001F0A2
:105CD000D6FA002801D0002032BD009C3E20207062
:105CE0000520A0702888E0702888000A207108220A
:105CF0006968601DFCF7A2FD0222A96820000D3032
:105D0000FCF79CFD0D2060702100052000F0A2FB37
:105D100032BD80B5FCF736F902BD80B5FCF75CF901
:105D200002BD70B582B004000D0016000020009086
:105D30006946082001F0A3FA002801D0002076BDB2
:105D40000099082008708D70CC70200A08714E717F
:105D500004204870FF2000F07DFB76BD38B50400BC
:105D60000D00002000906946072001F088FA002805
:105D700001D0002032BD0099302008708C70CD70A9
:105D8000280A087103204870FF2000F063FB32BD31
:105D9000F8B507000E0015000020009069460820A5
:105DA00001F06DFA002801D00720F2BD009C3200FE
:105DB0001749200000F07CF9A771380AE07106202D
:105DC000002E03D12572280A60720820607021001D
:105DD000FF2000F03FFBF2BD70B582B004000E0062
:105DE000002000906946062001F049FA002801D001
:105DF000072076BD009D32000649280000F058F9C2
:105E0000AC71200AE871062068702900A2E7000042
:105E10007B0C00007C0C000010B582B00400002058
